{
  "contractName": "McFaydenNFTMarketplaceUpgradable",
  "abi": [
    {
      "anonymous": false,
      "inputs": [
        {
          "indexed": true,
          "internalType": "uint256",
          "name": "tokenId",
          "type": "uint256"
        },
        {
          "indexed": true,
          "internalType": "address",
          "name": "currentBidder",
          "type": "address"
        },
        {
          "indexed": false,
          "internalType": "uint256",
          "name": "biddingAmount",
          "type": "uint256"
        }
      ],
      "name": "Bid",
      "type": "event"
    },
    {
      "anonymous": false,
      "inputs": [
        {
          "indexed": true,
          "internalType": "address",
          "name": "from",
          "type": "address"
        },
        {
          "indexed": true,
          "internalType": "address",
          "name": "to",
          "type": "address"
        },
        {
          "indexed": true,
          "internalType": "uint256",
          "name": "tokenId",
          "type": "uint256"
        },
        {
          "indexed": false,
          "internalType": "uint256",
          "name": "price",
          "type": "uint256"
        }
      ],
      "name": "Buy",
      "type": "event"
    },
    {
      "anonymous": false,
      "inputs": [
        {
          "indexed": true,
          "internalType": "uint256",
          "name": "tokenId",
          "type": "uint256"
        }
      ],
      "name": "Cancel",
      "type": "event"
    },
    {
      "anonymous": false,
      "inputs": [
        {
          "indexed": true,
          "internalType": "address",
          "name": "previousOwner",
          "type": "address"
        },
        {
          "indexed": true,
          "internalType": "address",
          "name": "newOwner",
          "type": "address"
        }
      ],
      "name": "OwnershipTransferred",
      "type": "event"
    },
    {
      "anonymous": false,
      "inputs": [
        {
          "indexed": true,
          "internalType": "address",
          "name": "from",
          "type": "address"
        },
        {
          "indexed": true,
          "internalType": "address",
          "name": "to",
          "type": "address"
        },
        {
          "indexed": true,
          "internalType": "uint256",
          "name": "tokenId",
          "type": "uint256"
        },
        {
          "indexed": false,
          "internalType": "uint256",
          "name": "price",
          "type": "uint256"
        }
      ],
      "name": "PlaceBid",
      "type": "event"
    },
    {
      "anonymous": false,
      "inputs": [
        {
          "indexed": true,
          "internalType": "bytes32",
          "name": "role",
          "type": "bytes32"
        },
        {
          "indexed": true,
          "internalType": "bytes32",
          "name": "previousAdminRole",
          "type": "bytes32"
        },
        {
          "indexed": true,
          "internalType": "bytes32",
          "name": "newAdminRole",
          "type": "bytes32"
        }
      ],
      "name": "RoleAdminChanged",
      "type": "event"
    },
    {
      "anonymous": false,
      "inputs": [
        {
          "indexed": true,
          "internalType": "bytes32",
          "name": "role",
          "type": "bytes32"
        },
        {
          "indexed": true,
          "internalType": "address",
          "name": "account",
          "type": "address"
        },
        {
          "indexed": true,
          "internalType": "address",
          "name": "sender",
          "type": "address"
        }
      ],
      "name": "RoleGranted",
      "type": "event"
    },
    {
      "anonymous": false,
      "inputs": [
        {
          "indexed": true,
          "internalType": "bytes32",
          "name": "role",
          "type": "bytes32"
        },
        {
          "indexed": true,
          "internalType": "address",
          "name": "account",
          "type": "address"
        },
        {
          "indexed": true,
          "internalType": "address",
          "name": "sender",
          "type": "address"
        }
      ],
      "name": "RoleRevoked",
      "type": "event"
    },
    {
      "anonymous": false,
      "inputs": [
        {
          "indexed": true,
          "internalType": "address",
          "name": "tokenOwner",
          "type": "address"
        },
        {
          "indexed": true,
          "internalType": "uint256",
          "name": "tokenId",
          "type": "uint256"
        },
        {
          "indexed": false,
          "internalType": "uint256",
          "name": "basePrice",
          "type": "uint256"
        }
      ],
      "name": "StartAuction",
      "type": "event"
    },
    {
      "anonymous": false,
      "inputs": [
        {
          "indexed": true,
          "internalType": "address",
          "name": "tokenOwner",
          "type": "address"
        },
        {
          "indexed": true,
          "internalType": "uint256",
          "name": "tokenId",
          "type": "uint256"
        },
        {
          "indexed": false,
          "internalType": "uint256",
          "name": "basePrice",
          "type": "uint256"
        }
      ],
      "name": "StartSale",
      "type": "event"
    },
    {
      "inputs": [],
      "name": "ADMIN_ROLE",
      "outputs": [
        {
          "internalType": "bytes32",
          "name": "",
          "type": "bytes32"
        }
      ],
      "stateMutability": "view",
      "type": "function",
      "constant": true
    },
    {
      "inputs": [],
      "name": "DEFAULT_ADMIN_ROLE",
      "outputs": [
        {
          "internalType": "bytes32",
          "name": "",
          "type": "bytes32"
        }
      ],
      "stateMutability": "view",
      "type": "function",
      "constant": true
    },
    {
      "inputs": [],
      "name": "MINTER_ROLE",
      "outputs": [
        {
          "internalType": "bytes32",
          "name": "",
          "type": "bytes32"
        }
      ],
      "stateMutability": "view",
      "type": "function",
      "constant": true
    },
    {
      "inputs": [],
      "name": "PAUSER_ROLE",
      "outputs": [
        {
          "internalType": "bytes32",
          "name": "",
          "type": "bytes32"
        }
      ],
      "stateMutability": "view",
      "type": "function",
      "constant": true
    },
    {
      "inputs": [
        {
          "internalType": "bytes32",
          "name": "role",
          "type": "bytes32"
        }
      ],
      "name": "getRoleAdmin",
      "outputs": [
        {
          "internalType": "bytes32",
          "name": "",
          "type": "bytes32"
        }
      ],
      "stateMutability": "view",
      "type": "function",
      "constant": true
    },
    {
      "inputs": [
        {
          "internalType": "bytes32",
          "name": "role",
          "type": "bytes32"
        },
        {
          "internalType": "uint256",
          "name": "index",
          "type": "uint256"
        }
      ],
      "name": "getRoleMember",
      "outputs": [
        {
          "internalType": "address",
          "name": "",
          "type": "address"
        }
      ],
      "stateMutability": "view",
      "type": "function",
      "constant": true
    },
    {
      "inputs": [
        {
          "internalType": "bytes32",
          "name": "role",
          "type": "bytes32"
        }
      ],
      "name": "getRoleMemberCount",
      "outputs": [
        {
          "internalType": "uint256",
          "name": "",
          "type": "uint256"
        }
      ],
      "stateMutability": "view",
      "type": "function",
      "constant": true
    },
    {
      "inputs": [
        {
          "internalType": "bytes32",
          "name": "role",
          "type": "bytes32"
        },
        {
          "internalType": "address",
          "name": "account",
          "type": "address"
        }
      ],
      "name": "hasRole",
      "outputs": [
        {
          "internalType": "bool",
          "name": "",
          "type": "bool"
        }
      ],
      "stateMutability": "view",
      "type": "function",
      "constant": true
    },
    {
      "inputs": [],
      "name": "owner",
      "outputs": [
        {
          "internalType": "address",
          "name": "",
          "type": "address"
        }
      ],
      "stateMutability": "view",
      "type": "function",
      "constant": true
    },
    {
      "inputs": [],
      "name": "renounceOwnership",
      "outputs": [],
      "stateMutability": "nonpayable",
      "type": "function"
    },
    {
      "inputs": [
        {
          "internalType": "bytes32",
          "name": "role",
          "type": "bytes32"
        },
        {
          "internalType": "address",
          "name": "account",
          "type": "address"
        }
      ],
      "name": "renounceRole",
      "outputs": [],
      "stateMutability": "nonpayable",
      "type": "function"
    },
    {
      "inputs": [
        {
          "internalType": "bytes32",
          "name": "role",
          "type": "bytes32"
        },
        {
          "internalType": "address",
          "name": "account",
          "type": "address"
        }
      ],
      "name": "revokeRole",
      "outputs": [],
      "stateMutability": "nonpayable",
      "type": "function"
    },
    {
      "inputs": [
        {
          "internalType": "bytes4",
          "name": "interfaceId",
          "type": "bytes4"
        }
      ],
      "name": "supportsInterface",
      "outputs": [
        {
          "internalType": "bool",
          "name": "",
          "type": "bool"
        }
      ],
      "stateMutability": "view",
      "type": "function",
      "constant": true
    },
    {
      "inputs": [
        {
          "internalType": "address",
          "name": "rootAdmin",
          "type": "address"
        },
        {
          "components": [
            {
              "internalType": "address payable",
              "name": "account",
              "type": "address"
            },
            {
              "internalType": "uint256",
              "name": "value",
              "type": "uint256"
            }
          ],
          "internalType": "struct libERC721Fee.Part",
          "name": "_maintainer",
          "type": "tuple"
        },
        {
          "internalType": "uint16",
          "name": "_maintainerInitialFee",
          "type": "uint16"
        },
        {
          "internalType": "contract NFTMarketplaceUpgradable",
          "name": "_tokenerc721",
          "type": "address"
        }
      ],
      "name": "initialize",
      "outputs": [],
      "stateMutability": "nonpayable",
      "type": "function"
    },
    {
      "inputs": [
        {
          "internalType": "address",
          "name": "newOwner",
          "type": "address"
        }
      ],
      "name": "transferOwnership",
      "outputs": [],
      "stateMutability": "nonpayable",
      "type": "function"
    },
    {
      "inputs": [
        {
          "internalType": "bytes32",
          "name": "role",
          "type": "bytes32"
        },
        {
          "internalType": "address",
          "name": "account",
          "type": "address"
        }
      ],
      "name": "grantRole",
      "outputs": [],
      "stateMutability": "nonpayable",
      "type": "function"
    },
    {
      "inputs": [
        {
          "internalType": "address",
          "name": "newAdmin",
          "type": "address"
        }
      ],
      "name": "changeRootAdmin",
      "outputs": [],
      "stateMutability": "nonpayable",
      "type": "function"
    },
    {
      "inputs": [
        {
          "internalType": "address",
          "name": "account",
          "type": "address"
        },
        {
          "internalType": "bytes32",
          "name": "role",
          "type": "bytes32"
        }
      ],
      "name": "addMinter",
      "outputs": [],
      "stateMutability": "nonpayable",
      "type": "function"
    },
    {
      "inputs": [
        {
          "internalType": "uint256",
          "name": "tokenId",
          "type": "uint256"
        }
      ],
      "name": "getCurrentBid",
      "outputs": [
        {
          "components": [
            {
              "internalType": "address payable",
              "name": "account",
              "type": "address"
            },
            {
              "internalType": "uint256",
              "name": "value",
              "type": "uint256"
            }
          ],
          "internalType": "struct libERC721Fee.Part",
          "name": "",
          "type": "tuple"
        }
      ],
      "stateMutability": "view",
      "type": "function",
      "constant": true
    },
    {
      "inputs": [
        {
          "internalType": "uint256",
          "name": "tokenId",
          "type": "uint256"
        }
      ],
      "name": "cancel",
      "outputs": [],
      "stateMutability": "nonpayable",
      "type": "function"
    },
    {
      "inputs": [],
      "name": "gettNftAddress",
      "outputs": [
        {
          "internalType": "contract NFTMarketplaceUpgradable",
          "name": "",
          "type": "address"
        }
      ],
      "stateMutability": "view",
      "type": "function",
      "constant": true
    },
    {
      "inputs": [
        {
          "components": [
            {
              "internalType": "address payable",
              "name": "account",
              "type": "address"
            },
            {
              "internalType": "uint256",
              "name": "value",
              "type": "uint256"
            }
          ],
          "internalType": "struct libERC721Fee.Part",
          "name": "_maintainer",
          "type": "tuple"
        },
        {
          "internalType": "uint16",
          "name": "_maintainerInitialFee",
          "type": "uint16"
        }
      ],
      "name": "updateMaintainer",
      "outputs": [],
      "stateMutability": "nonpayable",
      "type": "function"
    },
    {
      "inputs": [
        {
          "internalType": "uint16",
          "name": "_value",
          "type": "uint16"
        }
      ],
      "name": "updatemaintainerInitialFee",
      "outputs": [],
      "stateMutability": "nonpayable",
      "type": "function"
    },
    {
      "inputs": [
        {
          "internalType": "uint256",
          "name": "_value",
          "type": "uint256"
        }
      ],
      "name": "updateMaintainerValue",
      "outputs": [],
      "stateMutability": "nonpayable",
      "type": "function"
    },
    {
      "inputs": [],
      "name": "getMaintainer",
      "outputs": [
        {
          "internalType": "address",
          "name": "",
          "type": "address"
        }
      ],
      "stateMutability": "view",
      "type": "function",
      "constant": true
    },
    {
      "inputs": [],
      "name": "getMaintainerValue",
      "outputs": [
        {
          "internalType": "uint256",
          "name": "",
          "type": "uint256"
        }
      ],
      "stateMutability": "view",
      "type": "function",
      "constant": true
    },
    {
      "inputs": [],
      "name": "getMaintainerInitialFee",
      "outputs": [
        {
          "internalType": "uint16",
          "name": "",
          "type": "uint16"
        }
      ],
      "stateMutability": "view",
      "type": "function",
      "constant": true
    },
    {
      "inputs": [
        {
          "internalType": "uint256",
          "name": "collectableId",
          "type": "uint256"
        }
      ],
      "name": "getAuctionDetails",
      "outputs": [
        {
          "internalType": "address",
          "name": "",
          "type": "address"
        },
        {
          "internalType": "uint256",
          "name": "",
          "type": "uint256"
        },
        {
          "internalType": "uint256",
          "name": "",
          "type": "uint256"
        },
        {
          "internalType": "address",
          "name": "",
          "type": "address"
        }
      ],
      "stateMutability": "view",
      "type": "function",
      "constant": true
    },
    {
      "inputs": [
        {
          "components": [
            {
              "internalType": "address payable",
              "name": "account",
              "type": "address"
            },
            {
              "internalType": "uint256",
              "name": "value",
              "type": "uint256"
            }
          ],
          "internalType": "struct libERC721Fee.Part[]",
          "name": "creators",
          "type": "tuple[]"
        },
        {
          "internalType": "address",
          "name": "receiver",
          "type": "address"
        },
        {
          "internalType": "uint256",
          "name": "collectableId",
          "type": "uint256"
        },
        {
          "internalType": "string",
          "name": "IPFS_hash",
          "type": "string"
        }
      ],
      "name": "mintAndTransfer",
      "outputs": [],
      "stateMutability": "nonpayable",
      "type": "function"
    },
    {
      "inputs": [
        {
          "internalType": "uint256",
          "name": "collectableId",
          "type": "uint256"
        },
        {
          "internalType": "address",
          "name": "receiver",
          "type": "address"
        }
      ],
      "name": "transferAsset",
      "outputs": [],
      "stateMutability": "nonpayable",
      "type": "function"
    },
    {
      "inputs": [
        {
          "internalType": "uint256",
          "name": "startingPrice",
          "type": "uint256"
        },
        {
          "internalType": "uint256",
          "name": "salePrice",
          "type": "uint256"
        },
        {
          "components": [
            {
              "internalType": "address payable",
              "name": "account",
              "type": "address"
            },
            {
              "internalType": "uint256",
              "name": "value",
              "type": "uint256"
            }
          ],
          "internalType": "struct libERC721Fee.Part[]",
          "name": "creators",
          "type": "tuple[]"
        },
        {
          "internalType": "address payable",
          "name": "collectableOwner",
          "type": "address"
        },
        {
          "internalType": "uint256",
          "name": "collectableId",
          "type": "uint256"
        },
        {
          "internalType": "string",
          "name": "IPFS_hash",
          "type": "string"
        }
      ],
      "name": "mintAndStartAuction",
      "outputs": [],
      "stateMutability": "nonpayable",
      "type": "function"
    },
    {
      "inputs": [
        {
          "internalType": "uint256",
          "name": "salePrice",
          "type": "uint256"
        },
        {
          "components": [
            {
              "internalType": "address payable",
              "name": "account",
              "type": "address"
            },
            {
              "internalType": "uint256",
              "name": "value",
              "type": "uint256"
            }
          ],
          "internalType": "struct libERC721Fee.Part[]",
          "name": "creators",
          "type": "tuple[]"
        },
        {
          "internalType": "address payable",
          "name": "collectableOwner",
          "type": "address"
        },
        {
          "internalType": "uint256",
          "name": "collectableId",
          "type": "uint256"
        },
        {
          "internalType": "string",
          "name": "IPFS_hash",
          "type": "string"
        }
      ],
      "name": "mintAndStartSale",
      "outputs": [],
      "stateMutability": "nonpayable",
      "type": "function"
    },
    {
      "inputs": [
        {
          "internalType": "address",
          "name": "",
          "type": "address"
        },
        {
          "internalType": "address",
          "name": "_from",
          "type": "address"
        },
        {
          "internalType": "uint256",
          "name": "_tokenId",
          "type": "uint256"
        },
        {
          "internalType": "bytes",
          "name": "_data",
          "type": "bytes"
        }
      ],
      "name": "onERC721Received",
      "outputs": [
        {
          "internalType": "bytes4",
          "name": "",
          "type": "bytes4"
        }
      ],
      "stateMutability": "nonpayable",
      "type": "function"
    },
    {
      "inputs": [
        {
          "internalType": "uint256",
          "name": "collectableId",
          "type": "uint256"
        }
      ],
      "name": "bid",
      "outputs": [],
      "stateMutability": "payable",
      "type": "function",
      "payable": true
    },
    {
      "inputs": [
        {
          "internalType": "uint256",
          "name": "collectableId",
          "type": "uint256"
        }
      ],
      "name": "placeBid",
      "outputs": [],
      "stateMutability": "payable",
      "type": "function",
      "payable": true
    },
    {
      "inputs": [
        {
          "internalType": "address",
          "name": "receiver",
          "type": "address"
        },
        {
          "internalType": "uint256",
          "name": "collectableId",
          "type": "uint256"
        },
        {
          "internalType": "uint256",
          "name": "purchaseType",
          "type": "uint256"
        }
      ],
      "name": "buy",
      "outputs": [],
      "stateMutability": "payable",
      "type": "function",
      "payable": true
    }
  ],
  "bytecode": "0x608060405234801561001057600080fd5b506140f0806100206000396000f3fe6080604052600436106102135760003560e060020a9004806391d148541161011c578063d547741f116100a4578063f20e5e3511610073578063f20e5e35146105c5578063f2fde38b146105f5578063f58d713514610615578063f6df827814610637578063fa62ee8d1461064c57610213565b8063d547741f14610543578063da4e364f14610563578063e295bf7014610590578063e63ab1e9146105b057610213565b8063a6807a6b116100eb578063a6807a6b146104ae578063b6d05a38146104ce578063ca15c873146104ee578063cf6a649f1461050e578063d53913931461052e57610213565b806391d14854146104535780639979ef4514610473578063a217fddf14610486578063a59ac6dd1461049b57610213565b80634b0a72bc1161019f578063715018a61161016e578063715018a6146103df57806375b238fc146103f457806378553666146104095780638da5cb5b1461041e5780639010d07c1461043357610213565b80634b0a72bc1461035d57806360a9c1911461037f57806366eb463f1461039f578063714fbb8d146103bf57610213565b8063323b61d9116101e6578063323b61d9146102ca57806336568abe146102ea5780633b21f8d51461030a57806340e58ee51461032a578063454a2ab31461034a57610213565b806301ffc9a714610218578063150b7a021461024e578063248a9ca31461027b5780632f2ff15d146102a8575b600080fd5b34801561022457600080fd5b50610238610233366004613584565b61066c565b60405161024591906138a8565b60405180910390f35b34801561025a57600080fd5b5061026e610269366004613375565b6106b2565b60405161024591906138bc565b34801561028757600080fd5b5061029b61029636600461351c565b61072d565b60405161024591906138b3565b3480156102b457600080fd5b506102c86102c3366004613534565b610742565b005b3480156102d657600080fd5b506102c86102e53660046135f9565b6107a6565b3480156102f657600080fd5b506102c8610305366004613534565b610a80565b34801561031657600080fd5b506102c86103253660046133f2565b610ac5565b34801561033657600080fd5b506102c861034536600461351c565b610b48565b6102c861035836600461351c565b610d30565b34801561036957600080fd5b50610372610e1f565b6040516102459190613805565b34801561038b57600080fd5b506102c861039a36600461351c565b610e2f565b3480156103ab57600080fd5b506102c86103ba36600461333d565b610ea1565b3480156103cb57600080fd5b506102c86103da3660046134a9565b610eee565b3480156103eb57600080fd5b506102c86111e6565b34801561040057600080fd5b5061029b611234565b34801561041557600080fd5b50610372611246565b34801561042a57600080fd5b5061037261125c565b34801561043f57600080fd5b5061037261044e366004613563565b61126b565b34801561045f57600080fd5b5061023861046e366004613534565b61128c565b6102c861048136600461351c565b6112b7565b34801561049257600080fd5b5061029b61162a565b6102c86104a9366004613475565b61162f565b3480156104ba57600080fd5b506102c86104c93660046135ac565b6118c1565b3480156104da57600080fd5b506102c86104e93660046135df565b61192e565b3480156104fa57600080fd5b5061029b61050936600461351c565b6119b7565b34801561051a57600080fd5b506102c861052936600461341d565b6119ce565b34801561053a57600080fd5b5061029b611a60565b34801561054f57600080fd5b506102c861055e366004613534565b611a72565b34801561056f57600080fd5b5061058361057e36600461351c565b611a9b565b6040516102459190613f16565b34801561059c57600080fd5b506102c86105ab366004613682565b611ad7565b3480156105bc57600080fd5b5061029b611dbc565b3480156105d157600080fd5b506105e56105e036600461351c565b611de0565b604051610245949392919061387d565b34801561060157600080fd5b506102c861061036600461333d565b611e22565b34801561062157600080fd5b5061062a611e88565b6040516102459190613f24565b34801561064357600080fd5b5061029b611e93565b34801561065857600080fd5b506102c8610667366004613534565b611e9a565b6000600160e060020a031982167f5a05180f0000000000000000000000000000000000000000000000000000000014806106aa57506106aa826120b0565b90505b919050565b600080600080848060200190518101906106cc9190613713565b92509250925082600114156106eb576106e68782886120ee565b610700565b8260021415610700576107008783838961216f565b507f150b7a0200000000000000000000000000000000000000000000000000000000979650505050505050565b60009081526065602052604090206001015490565b60008051602061409b8339815191528214156107985761076f60008051602061409b8339815191526119b7565b156107985760405160e560020a62461bcd02815260040161078f90613a89565b60405180910390fd5b6107a28282612286565b5050565b6107c060008051602061409b83398151915261046e6122a5565b806107e057506107e060008051602061407b83398151915261046e6122a5565b8061080a57506107ee6122a5565b600160a060020a03166107ff61125c565b600160a060020a0316145b6108295760405160e560020a62461bcd02815260040161078f90613e82565b610832846122a9565b156108525760405160e560020a62461bcd02815260040161078f90613e25565b60005b84518110156108f35761012d60008481526020019081526020016000206001018582815181106108985760e060020a634e487b7102600052603260045260246000fd5b60209081029190910181015182546001808201855560009485529383902082516002909202018054600160a060020a031916600160a060020a03909216919091178155910151910155806108eb81614018565b915050610855565b50600082815261012d60205260408082208054600160a060020a031916600160a060020a0387161790558051808201909152855181908790849061094a5760e060020a634e487b7102600052603260045260246000fd5b602002602001015160000151600160a060020a03168152602001866000815181106109885760e060020a634e487b7102600052603260045260246000fd5b60209081029190910181015101519052610133546040517fcc3961b0000000000000000000000000000000000000000000000000000000008152919250620100009004600160a060020a03169063cc3961b0906109ef90309087908790879060040161383d565b600060405180830381600087803b158015610a0957600080fd5b505af1158015610a1d573d6000803e3d6000fd5b50505050610a2c836001612311565b610a36838761235b565b8284600160a060020a03167f233b57d2eb4596662357272de5323e86061c1720d23cf7989effd3d1c4d6e00c88604051610a7091906138b3565b60405180910390a3505050505050565b610a886122a5565b600160a060020a031681600160a060020a031614610abb5760405160e560020a62461bcd02815260040161078f90613eb9565b6107a28282612371565b610adf60008051602061409b83398151915261046e6122a5565b80610b095750610aed6122a5565b600160a060020a0316610afe61125c565b600160a060020a0316145b610b285760405160e560020a62461bcd02815260040161078f90613ae6565b60008051602061407b8339815191528114156107a2576107a28183612393565b600081815261012d6020526040902054600160a060020a03163314610b825760405160e560020a62461bcd02815260040161078f90613950565b600081815261012f6020526040902054600160a060020a031615610bbb5760405160e560020a62461bcd02815260040161078f90613bb1565b6101335460405160e160020a6331a9108f02815262010000909104600160a060020a0316906323b872dd908290636352211e90610bfc9086906004016138b3565b60206040518083038186803b158015610c1457600080fd5b505afa158015610c28573d6000803e3d6000fd5b505050506040513d601f19601f82011682018060405250810190610c4c9190613359565b600084815261012d60205260409081902054905160e060020a63ffffffff8516028152610c889291600160a060020a0316908690600401613819565b600060405180830381600087803b158015610ca257600080fd5b505af1158015610cb6573d6000803e3d6000fd5b505050600082815261012f602090815260408083208054600160a060020a03199081168255600191820185905561012e84528285208590556101309093528184208054909316835591909101829055518392507f8bf30e7ff26833413be5f69e1d373744864d600b664204b4a2f9844a8eedb9ed9190a250565b600260fb541415610d565760405160e560020a62461bcd02815260040161078f90613dee565b600260fb819055600082815261012e602052604090205414610d8d5760405160e560020a62461bcd02815260040161078f90613a52565b600081815261012f60205260409020600101543411610dc15760405160e560020a62461bcd02815260040161078f90613919565b610dca8161239d565b610dd5813334612402565b33600160a060020a0316817fdcd726e11f8b5e160f00290f0fe3a1abb547474e53a8e7a8f49a85e7b1ca319934604051610e0f91906138b3565b60405180910390a350600160fb55565b61013154600160a060020a031690565b610e4960008051602061409b83398151915261046e6122a5565b80610e735750610e576122a5565b600160a060020a0316610e6861125c565b600160a060020a0316145b610e925760405160e560020a62461bcd02815260040161078f90613ae6565b610e9b81612468565b61013255565b6000610ebc60008051602061409b833981519152600061126b565b9050610ed660008051602061409b83398151915282611a72565b6107a260008051602061409b83398151915283610742565b610f0860008051602061409b83398151915261046e6122a5565b80610f285750610f2860008051602061407b83398151915261046e6122a5565b80610f525750610f366122a5565b600160a060020a0316610f4761125c565b600160a060020a0316145b610f715760405160e560020a62461bcd02815260040161078f90613e82565b600260fb541415610f975760405160e560020a62461bcd02815260040161078f90613dee565b600260fb55610fa5846122a9565b15610fc55760405160e560020a62461bcd02815260040161078f90613e25565b60005b84518110156110665761012d600084815260200190815260200160002060010185828151811061100b5760e060020a634e487b7102600052603260045260246000fd5b60209081029190910181015182546001808201855560009485529383902082516002909202018054600160a060020a031916600160a060020a039092169190911781559101519101558061105e81614018565b915050610fc8565b5060006040518060400160405280866000815181106110985760e060020a634e487b7102600052603260045260246000fd5b602002602001015160000151600160a060020a03168152602001866000815181106110d65760e060020a634e487b7102600052603260045260246000fd5b60209081029190910181015101519052610133546040517fcc3961b0000000000000000000000000000000000000000000000000000000008152919250620100009004600160a060020a03169063cc3961b09061113d90879087908790879060040161383d565b600060405180830381600087803b15801561115757600080fd5b505af115801561116b573d6000803e3d6000fd5b505050508284600160a060020a03166000600160a060020a03167f89f5adc174562e07c9c9b1cae7109bbecb21cf9d1b2847e550042b8653c54a0e60006040516111b591906138b3565b60405180910390a45050600090815261012d60205260409020600201805460ff1916600190811790915560fb555050565b6111ee6122a5565b600160a060020a03166111ff61125c565b600160a060020a0316146112285760405160e560020a62461bcd02815260040161078f90613cff565b611232600061248d565b565b60008051602061409b83398151915281565b61013354620100009004600160a060020a031690565b60c954600160a060020a031690565b600082815260976020526040812061128390836124df565b90505b92915050565b6000918252606560209081526040808420600160a060020a0393909316845291905290205460ff1690565b6112d160008051602061409b83398151915261046e6122a5565b806112fb57506112df6122a5565b600160a060020a03166112f061125c565b600160a060020a0316145b61131a5760405160e560020a62461bcd02815260040161078f90613ae6565b600260fb5414156113405760405160e560020a62461bcd02815260040161078f90613dee565b600260fb55600081815261012f6020526040902054600160a060020a0316611466576101335460405160e160020a6331a9108f02815262010000909104600160a060020a0316906323b872dd908290636352211e906113a39086906004016138b3565b60206040518083038186803b1580156113bb57600080fd5b505afa1580156113cf573d6000803e3d6000fd5b505050506040513d601f19601f820116820180604052508101906113f39190613359565b600084815261012d60205260409081902054905160e060020a63ffffffff851602815261142f9291600160a060020a0316908690600401613819565b600060405180830381600087803b15801561144957600080fd5b505af115801561145d573d6000803e3d6000fd5b50505050611583565b6101335460405160e160020a6331a9108f02815262010000909104600160a060020a0316906323b872dd908290636352211e906114a79086906004016138b3565b60206040518083038186803b1580156114bf57600080fd5b505afa1580156114d3573d6000803e3d6000fd5b505050506040513d601f19601f820116820180604052508101906114f79190613359565b600084815261012f60205260409081902054905160e060020a63ffffffff85160281526115339291600160a060020a0316908690600401613819565b600060405180830381600087803b15801561154d57600080fd5b505af1158015611561573d6000803e3d6000fd5b505050600082815261012f6020526040902060010154611583915082906124eb565b600081815261012f60208181526040808420805461012d845294829020549390925260019091015490518493600160a060020a039081169316917f3b8a018da9bfa357f1905fbda25872debe55fe7b03989d47d5b629629c358bb6916115e991906138b3565b60405180910390a4600090815261012e6020908152604080832083905561012f90915281208054600160a060020a031916815560019081019190915560fb55565b600081565b600260fb5414156116555760405160e560020a62461bcd02815260040161078f90613dee565b600260fb556000828152610130602052604090206001015461168c5760405160e560020a62461bcd02815260040161078f90613d91565b600082815261013060205260409020600101543410156116c15760405160e560020a62461bcd02815260040161078f90613b1d565b6002811415611707576116d38261239d565b600082815261012e6020908152604080832083905561012f90915281208054600160a060020a03191681556001015561172a565b6001811461172a5760405160e560020a62461bcd02815260040161078f90613987565b600082815261013060205260409020600101546117489083906124eb565b600082815261012d6020908152604080832054610130909252918290206001015491518492600160a060020a038088169316917f89f5adc174562e07c9c9b1cae7109bbecb21cf9d1b2847e550042b8653c54a0e916117a6916138b3565b60405180910390a46101335460405160e160020a6331a9108f02815262010000909104600160a060020a0316906323b872dd908290636352211e906117ef9087906004016138b3565b60206040518083038186803b15801561180757600080fd5b505afa15801561181b573d6000803e3d6000fd5b505050506040513d601f19601f8201168201806040525081019061183f9190613359565b85856040518463ffffffff1660e060020a02815260040161186293929190613819565b600060405180830381600087803b15801561187c57600080fd5b505af1158015611890573d6000803e3d6000fd5b50505060009283525050610130602052604081208054600160a060020a031916815560019081019190915560fb5550565b6118db60008051602061409b83398151915261046e6122a5565b8061190557506118e96122a5565b600160a060020a03166118fa61125c565b600160a060020a0316145b6119245760405160e560020a62461bcd02815260040161078f90613ae6565b6107a282826127a2565b61194860008051602061409b83398151915261046e6122a5565b8061197257506119566122a5565b600160a060020a031661196761125c565b600160a060020a0316145b6119915760405160e560020a62461bcd02815260040161078f90613ae6565b61199e8161ffff16612468565b610133805461ffff191661ffff92909216919091179055565b60008181526097602052604081206106aa90612814565b600054610100900460ff166119e95760005460ff16156119f1565b6119f161281f565b611a105760405160e560020a62461bcd02815260040161078f90613c6b565b600054610100900460ff16158015611a3b576000805460ff1961ff0019909116610100171660011790555b611a4785858585612830565b8015611a59576000805461ff00191690555b5050505050565b60008051602061407b83398151915281565b611a7b8261072d565b611a8c81611a876122a5565b6128c9565b611a968383612371565b505050565b611aa36131d6565b50600090815261012f602090815260409182902082518084019093528054600160a060020a03168352600101549082015290565b611af160008051602061409b83398151915261046e6122a5565b80611b115750611b1160008051602061407b83398151915261046e6122a5565b80611b3b5750611b1f6122a5565b600160a060020a0316611b3061125c565b600160a060020a0316145b611b5a5760405160e560020a62461bcd02815260040161078f90613e82565b611b63846122a9565b15611b835760405160e560020a62461bcd02815260040161078f90613e25565b60005b8451811015611c245761012d6000848152602001908152602001600020600101858281518110611bc95760e060020a634e487b7102600052603260045260246000fd5b60209081029190910181015182546001808201855560009485529383902082516002909202018054600160a060020a031916600160a060020a0390921691909117815591015191015580611c1c81614018565b915050611b86565b50600082815261012d60205260408082208054600160a060020a031916600160a060020a03871617905580518082019091528551819087908490611c7b5760e060020a634e487b7102600052603260045260246000fd5b602002602001015160000151600160a060020a0316815260200186600081518110611cb95760e060020a634e487b7102600052603260045260246000fd5b60209081029190910181015101519052610133546040517fcc3961b0000000000000000000000000000000000000000000000000000000008152919250620100009004600160a060020a03169063cc3961b090611d2090309087908790879060040161383d565b600060405180830381600087803b158015611d3a57600080fd5b505af1158015611d4e573d6000803e3d6000fd5b50505050611d5d836002612311565b611d678388612930565b611d71838761235b565b8284600160a060020a03167fe7102271d20e41cf582742f475a5e3da6795bcd2469fa3763a09e23cf9f1b72589604051611dab91906138b3565b60405180910390a350505050505050565b7f65d7a28e3265b37a6474929f336521b332c1681b933f6cb9f3376673440d862a81565b600090815261012f60209081526040808320805460019182015461013085528386209092015461012d9094529190932054600160a060020a0391821694911690565b611e2a6122a5565b600160a060020a0316611e3b61125c565b600160a060020a031614611e645760405160e560020a62461bcd02815260040161078f90613cff565b611e6d8161297f565b611e78600082612393565b611e8560006103056122a5565b50565b6101335461ffff1690565b6101325490565b611eb460008051602061409b83398151915261046e6122a5565b80611ed45750611ed460008051602061407b83398151915261046e6122a5565b80611efe5750611ee26122a5565b600160a060020a0316611ef361125c565b600160a060020a0316145b611f1d5760405160e560020a62461bcd02815260040161078f90613e82565b600260fb541415611f435760405160e560020a62461bcd02815260040161078f90613dee565b600260fb55600082815261012d60205260408082205490518492600160a060020a038086169316917f89f5adc174562e07c9c9b1cae7109bbecb21cf9d1b2847e550042b8653c54a0e91611f96916138b3565b60405180910390a46101335460405160e160020a6331a9108f02815262010000909104600160a060020a0316906323b872dd908290636352211e90611fdf9087906004016138b3565b60206040518083038186803b158015611ff757600080fd5b505afa15801561200b573d6000803e3d6000fd5b505050506040513d601f19601f8201168201806040525081019061202f9190613359565b83856040518463ffffffff1660e060020a02815260040161205293929190613819565b600060405180830381600087803b15801561206c57600080fd5b505af1158015612080573d6000803e3d6000fd5b50505060009283525050610130602052604081208054600160a060020a031916815560019081019190915560fb55565b6000600160e060020a031982167f7965db0b0000000000000000000000000000000000000000000000000000000014806106aa57506106aa826129f3565b6120f9816001612311565b612103818361235b565b600081815261012d6020526040908190208054600160a060020a031916600160a060020a03861690811790915590518291907f233b57d2eb4596662357272de5323e86061c1720d23cf7989effd3d1c4d6e00c906121629086906138b3565b60405180910390a3505050565b61217a816002612311565b6121848184612930565b61218e818361235b565b600081815261012d6020526040908190208054600160a060020a031916600160a060020a038781169190911790915561013354915160e160020a6331a9108f028152839262010000900490911690636352211e906121f09084906004016138b3565b60206040518083038186803b15801561220857600080fd5b505afa15801561221c573d6000803e3d6000fd5b505050506040513d601f19601f820116820180604052508101906122409190613359565b600160a060020a03167fe7102271d20e41cf582742f475a5e3da6795bcd2469fa3763a09e23cf9f1b7258560405161227891906138b3565b60405180910390a350505050565b61228f8261072d565b61229b81611a876122a5565b611a968383612a25565b3390565b60008060005b8351811015612306578381815181106122db5760e060020a634e487b7102600052603260045260246000fd5b602002602001015160200151826122f29190613f64565b9150806122fe81614018565b9150506122af565b506113881092915050565b80158061231e5750600181145b806123295750600281145b6123485760405160e560020a62461bcd02815260040161078f90613a1b565b600091825261012e602052604090912055565b6000918252610130602052604090912060010155565b61237b8282612a47565b6000828152609760205260409020611a969082612acc565b6107a28282612a25565b600081815261012f602052604090208054600190910154600160a060020a03909116908115611a9657604051600160a060020a0383169082156108fc029083906000818181858888f193505050501580156123fc573d6000803e3d6000fd5b50505050565b600083815261012e60205260409020546002146124345760405160e560020a62461bcd02815260040161078f90613cc8565b600092835261012f60205260409092208054600160a060020a031916600160a060020a039290921691909117815560010155565b611388811115611e855760405160e560020a62461bcd02815260040161078f90613c0e565b60c98054600160a060020a03838116600160a060020a0319831681179093556040519116919082907f8be0079c531659141344cd1fd0a4f28419497f9722a3daafe3b4186f6b6457e090600090a35050565b60006112838383612ae1565b600082815261012d6020526040812060028101548291849160019091019060ff1615612618576101325461252e9061271090612528908890612b1c565b90612b28565b925060005b8154811015612612576125896127106125288484815481106125685760e060020a634e487b7102600052603260045260246000fd5b90600052602060002090600202016001015489612b1c90919063ffffffff16565b94506125958386612b34565b92508181815481106125ba5760e060020a634e487b7102600052603260045260246000fd5b60009182526020822060029091020154604051600160a060020a039091169187156108fc02918891818181858888f193505050501580156125ff573d6000803e3d6000fd5b508061260a81614018565b915050612533565b506126f9565b61013354612633906127109061252890889061ffff16612b1c565b92508054612645906125288786612b34565b935060005b81548110156126da5761265d8386612b34565b92508181815481106126825760e060020a634e487b7102600052603260045260246000fd5b60009182526020822060029091020154604051600160a060020a039091169187156108fc02918891818181858888f193505050501580156126c7573d6000803e3d6000fd5b50806126d281614018565b91505061264a565b50600086815261012d60205260409020600201805460ff191660011790555b61013154600160a060020a0316156127545761013154604051600160a060020a039091169084156108fc029085906000818181858888f19350505050158015612746573d6000803e3d6000fd5b506127518284612b34565b91505b600086815261012d6020526040808220549051600160a060020a039091169184156108fc02918591818181858888f19350505050158015612799573d6000803e3d6000fd5b50505050505050565b8151600160a060020a03166127b657600080fd5b6127c38260200151612468565b6127d08161ffff16612468565b81516101318054600160a060020a031916600160a060020a0390921691909117905560209091015161013255610133805461ffff191661ffff909216919091179055565b60006106aa82612b40565b600061282a30612b44565b15905090565b600054610100900460ff1661284b5760005460ff1615612853565b61285361281f565b6128725760405160e560020a62461bcd02815260040161078f90613c6b565b600054610100900460ff1615801561289d576000805460ff1961ff0019909116610100171660011790555b6128a985858585612b53565b6128b1612c23565b6128b9612c54565b6128c1612c54565b611a47612c7e565b6128d3828261128c565b6107a2576128eb81600160a060020a03166014612cb8565b6128f6836020612cb8565b604051602001612907929190613784565b60408051601f198184030181529082905260e560020a62461bcd02825261078f916004016138d1565b600082815261012f6020526040902054600160a060020a0316156129695760405160e560020a62461bcd02815260040161078f90613b7a565b600091825261012f602052604090912060010155565b6129876122a5565b600160a060020a031661299861125c565b600160a060020a0316146129c15760405160e560020a62461bcd02815260040161078f90613cff565b600160a060020a0381166129ea5760405160e560020a62461bcd02815260040161078f906139be565b611e858161248d565b600160e060020a031981167f01ffc9a70000000000000000000000000000000000000000000000000000000014919050565b612a2f8282612f27565b6000828152609760205260409020611a969082612fae565b612a51828261128c565b156107a2576000828152606560209081526040808320600160a060020a03851684529091529020805460ff19169055612a886122a5565b600160a060020a031681600160a060020a0316837ff6391f5c32d9c69d2a47ea670b442974b53935d1edc7fd64eb21e047a839171b60405160405180910390a45050565b600061128383600160a060020a038416612fc3565b6000826000018281548110612b095760e060020a634e487b7102600052603260045260246000fd5b9060005260206000200154905092915050565b60006112838284613f9f565b60006112838284613f7c565b60006112838284613fbe565b5490565b600160a060020a03163b151590565b600054610100900460ff16612b6e5760005460ff1615612b76565b612b7661281f565b612b955760405160e560020a62461bcd02815260040161078f90613c6b565b600054610100900460ff16158015612bc0576000805460ff1961ff0019909116610100171660011790555b612bca84846127a2565b612bdc6000612bd76122a5565b612393565b612bf460008051602061409b83398151915286612393565b612c1a60008051602061407b83398151915260008051602061409b8339815191526130e9565b611a478261313c565b600054610100900460ff16612c4d5760405160e560020a62461bcd02815260040161078f90613d34565b600160fb55565b600054610100900460ff166112325760405160e560020a62461bcd02815260040161078f90613d34565b600054610100900460ff16612ca85760405160e560020a62461bcd02815260040161078f90613d34565b611232612cb36122a5565b61248d565b60606000612cc7836002613f9f565b612cd2906002613f64565b67ffffffffffffffff811115612cfb5760e060020a634e487b7102600052604160045260246000fd5b6040519080825280601f01601f191660200182016040528015612d25576020820181803683370190505b5090507f300000000000000000000000000000000000000000000000000000000000000081600081518110612d6d5760e060020a634e487b7102600052603260045260246000fd5b60200101907effffffffffffffffffffffffffffffffffffffffffffffffffffffffffffff1916908160001a9053507f780000000000000000000000000000000000000000000000000000000000000081600181518110612de15760e060020a634e487b7102600052603260045260246000fd5b60200101907effffffffffffffffffffffffffffffffffffffffffffffffffffffffffffff1916908160001a9053506000612e1d846002613f9f565b612e28906001613f64565b90505b6001811115612f05577f303132333435363738396162636465660000000000000000000000000000000085600f1660108110612e7a5760e060020a634e487b7102600052603260045260246000fd5b1a7f010000000000000000000000000000000000000000000000000000000000000002828281518110612ec05760e060020a634e487b7102600052603260045260246000fd5b60200101907effffffffffffffffffffffffffffffffffffffffffffffffffffffffffffff1916908160001a905350601090940493612efe81614001565b9050612e2b565b5083156112835760405160e560020a62461bcd02815260040161078f906138e4565b612f31828261128c565b6107a2576000828152606560209081526040808320600160a060020a03851684529091529020805460ff19166001179055612f6a6122a5565b600160a060020a031681600160a060020a0316837f2f8788117e7eff1d82e926ec794901d17c78024a50270940304540a733656f0d60405160405180910390a45050565b600061128383600160a060020a038416613174565b600081815260018301602052604081205480156130df576000612fe7600183613fbe565b8554909150600090612ffb90600190613fbe565b905081811461308257600086600001828154811061302c5760e060020a634e487b7102600052603260045260246000fd5b90600052602060002001549050808760000184815481106130605760e060020a634e487b7102600052603260045260246000fd5b6000918252602080832090910192909255918252600188019052604090208390555b85548690806130a45760e060020a634e487b7102600052603160045260246000fd5b600190038181906000526020600020016000905590558560010160008681526020019081526020016000206000905560019350505050611286565b6000915050611286565b60006130f48361072d565b600084815260656020526040808220600101859055519192508391839186917fbd79b86ffe0ab8e8776151514217cd7cacd52c909f66475c3af44e129f0b00ff9190a4505050565b6101338054600160a060020a03909216620100000275ffffffffffffffffffffffffffffffffffffffff000019909216919091179055565b600061318083836131be565b6131b657508154600181810184556000848152602080822090930184905584548482528286019093526040902091909155611286565b506000611286565b60009081526001919091016020526040902054151590565b604080518082019091526000808252602082015290565b600067ffffffffffffffff8311156132075761320761404c565b61321a601f8401601f1916602001613f33565b905082815283838301111561322e57600080fd5b828260208301376000602084830101529392505050565b600082601f830112613255578081fd5b8135602067ffffffffffffffff8211156132715761327161404c565b61327e8182840201613f33565b8281528181019085830160408086028801850189101561329c578687fd5b865b868110156132c2576132b08a846132ef565b8552938501939181019160010161329e565b509198975050505050505050565b600082601f8301126132e0578081fd5b611283838335602085016131ed565b600060408284031215613300578081fd5b61330a6040613f33565b9050813561331781614065565b808252506020820135602082015292915050565b803561ffff811681146106ad57600080fd5b60006020828403121561334e578081fd5b813561128381614065565b60006020828403121561336a578081fd5b815161128381614065565b6000806000806080858703121561338a578283fd5b843561339581614065565b935060208501356133a581614065565b925060408501359150606085013567ffffffffffffffff8111156133c7578182fd5b8501601f810187136133d7578182fd5b6133e6878235602084016131ed565b91505092959194509250565b60008060408385031215613404578182fd5b823561340f81614065565b946020939093013593505050565b60008060008060a08587031215613432578384fd5b843561343d81614065565b935061344c86602087016132ef565b925061345a6060860161332b565b9150608085013561346a81614065565b939692955090935050565b600080600060608486031215613489578283fd5b833561349481614065565b95602085013595506040909401359392505050565b600080600080608085870312156134be578384fd5b843567ffffffffffffffff808211156134d5578586fd5b6134e188838901613245565b9550602087013591506134f382614065565b909350604086013592506060860135908082111561350f578283fd5b506133e6878288016132d0565b60006020828403121561352d578081fd5b5035919050565b60008060408385031215613546578182fd5b82359150602083013561355881614065565b809150509250929050565b60008060408385031215613575578182fd5b50508035926020909101359150565b600060208284031215613595578081fd5b8135600160e060020a031981168114611283578182fd5b600080606083850312156135be578182fd5b6135c884846132ef565b91506135d66040840161332b565b90509250929050565b6000602082840312156135f0578081fd5b6112838261332b565b600080600080600060a08688031215613610578283fd5b85359450602086013567ffffffffffffffff8082111561362e578485fd5b61363a89838a01613245565b95506040880135915061364c82614065565b9093506060870135925060808701359080821115613668578283fd5b50613675888289016132d0565b9150509295509295909350565b60008060008060008060c0878903121561369a578384fd5b8635955060208701359450604087013567ffffffffffffffff808211156136bf578586fd5b6136cb8a838b01613245565b9550606089013591506136dd82614065565b9093506080880135925060a088013590808211156136f9578283fd5b5061370689828a016132d0565b9150509295509295509295565b600080600060608486031215613727578081fd5b8351925060208401519150604084015190509250925092565b60008151808452613758816020860160208601613fd5565b601f01601f19169290920160200192915050565b8051600160a060020a03168252602090810151910152565b60007f416363657373436f6e74726f6c3a206163636f756e7420000000000000000000825283516137bc816017850160208801613fd5565b7f206973206d697373696e6720726f6c652000000000000000000000000000000060179184019182015283516137f9816028840160208801613fd5565b01602801949350505050565b600160a060020a0391909116815260200190565b600160a060020a039384168152919092166020820152604081019190915260600190565b6000600160a060020a038616825284602083015260a0604083015261386560a0830185613740565b9050613874606083018461376c565b95945050505050565b600160a060020a03948516815260208101939093526040830191909152909116606082015260800190565b901515815260200190565b90815260200190565b600160e060020a031991909116815260200190565b6000602082526112836020830184613740565b6020808252818101527f537472696e67733a20686578206c656e67746820696e73756666696369656e74604082015260600190565b6020808252601f908201527f496e73756666696369656e742066756e6420746f206d616b6520612062696400604082015260600190565b60208082526016908201527f4e6f74206f776e6572206f662074686520746f6b656e00000000000000000000604082015260600190565b60208082526015908201527f496e76616c696420707572636861736520747970650000000000000000000000604082015260600190565b60208082526026908201527f4f776e61626c653a206e6577206f776e657220697320746865207a65726f206160408201527f6464726573730000000000000000000000000000000000000000000000000000606082015260800190565b60208082526019908201527f496e76616c696420746f6b656e2073616c652073746174757300000000000000604082015260600190565b6020808252601a908201527f5468657265206973206e6f206163746976652061756374696f6e000000000000604082015260600190565b60208082526027908201527f65786163746c79206f6e6520616464726573732063616e20686176652061646d60408201527f696e20726f6c6500000000000000000000000000000000000000000000000000606082015260800190565b60208082526014908201527f5265737472696374656420746f2061646d696e2e000000000000000000000000604082015260600190565b60208082526023908201527f496e73756666696369656e742066756e6420746f20707572636861736520746f60408201527f6b656e0000000000000000000000000000000000000000000000000000000000606082015260800190565b6020808252601d908201527f5468652061756374696f6e206973206e6f742079657420636c6f736564000000604082015260600190565b60208082526025908201527f63616e6e6f742063616e63656c2069662062696464696e67206861732073746160408201527f7274656420000000000000000000000000000000000000000000000000000000606082015260800190565b60208082526021908201527f6d61696e7461696e6572206665652063616e6e6f74206578636565642068616c60408201527f6600000000000000000000000000000000000000000000000000000000000000606082015260800190565b6020808252602e908201527f496e697469616c697a61626c653a20636f6e747261637420697320616c72656160408201527f647920696e697469616c697a6564000000000000000000000000000000000000606082015260800190565b60208082526011908201527f4e6f206163746976652061756374696f6e000000000000000000000000000000604082015260600190565b6020808252818101527f4f776e61626c653a2063616c6c6572206973206e6f7420746865206f776e6572604082015260600190565b6020808252602b908201527f496e697469616c697a61626c653a20636f6e7472616374206973206e6f74206960408201527f6e697469616c697a696e67000000000000000000000000000000000000000000606082015260800190565b6020808252602b908201527f54686973206f7065726174696f6e206e6f74207065726d697474656420666f7260408201527f2074686973206173736574000000000000000000000000000000000000000000606082015260800190565b6020808252601f908201527f5265656e7472616e637947756172643a207265656e7472616e742063616c6c00604082015260600190565b6020808252602d908201527f43726561746f72732073686172652073686f756c646e2774206578636565642060408201527f68616c66206f6620707269636500000000000000000000000000000000000000606082015260800190565b60208082526015908201527f5265737472696374656420746f206d696e7465722e0000000000000000000000604082015260600190565b6020808252602f908201527f416363657373436f6e74726f6c3a2063616e206f6e6c792072656e6f756e636560408201527f20726f6c657320666f722073656c660000000000000000000000000000000000606082015260800190565b60408101611286828461376c565b61ffff91909116815260200190565b604051601f8201601f1916810167ffffffffffffffff81118282101715613f5c57613f5c61404c565b604052919050565b60008219821115613f7757613f77614033565b500190565b600082613f9a5760e060020a634e487b710281526012600452602481fd5b500490565b6000816000190483118215151615613fb957613fb9614033565b500290565b600082821015613fd057613fd0614033565b500390565b60005b83811015613ff0578181015183820152602001613fd8565b838111156123fc5750506000910152565b60008161401057614010614033565b506000190190565b600060001982141561402c5761402c614033565b5060010190565b60e060020a634e487b7102600052601160045260246000fd5b60e060020a634e487b7102600052604160045260246000fd5b600160a060020a0381168114611e8557600080fdfe9f2df0fed2c77648de5860a4cc508cd0818c85b8b8a1ab4ceeef8d981c8956a6a49807205ce4d355092ef5a8a18f56e8913cf4a201fbe287825b095693c21775a2646970667358221220f43397a9660d9a8558271294f7eb38c2c73691e2783b3ea0982e797e99b80e8964736f6c63430008010033",
  "immutableReferences": {},
  "source": "// SPDX-License-Identifier: MIT\n\npragma solidity ^0.8.0;\n\nimport \"@openzeppelin/contracts-upgradeable/access/AccessControlEnumerableUpgradeable.sol\";\nimport \"@openzeppelin/contracts-upgradeable/access/OwnableUpgradeable.sol\";\nimport \"@openzeppelin/contracts-upgradeable/proxy/utils/Initializable.sol\";\nimport \"@openzeppelin/contracts-upgradeable/token/ERC721/utils/ERC721HolderUpgradeable.sol\";\nimport \"@openzeppelin/contracts-upgradeable/utils/math/SafeMathUpgradeable.sol\";\nimport \"@openzeppelin/contracts-upgradeable/security/ReentrancyGuardUpgradeable.sol\";\n\n// library functions\n// library can be called directly and they can't modify the state variables\n// Reduces Gas Cost\nlibrary libERC721Fee {\n    uint256 constant TYPE_DEFAULT = 0;\n    uint256 constant TYPE_SALE = 1;\n    uint256 constant TYPE_AUCTION = 2;\n\n    struct Part {\n        address payable account;\n        uint256 value;\n    }\n\n    struct Data {\n        address payable collectableOwner;\n        Part[] creators;\n        bool isSecondary;\n    }\n}\n\n// interface from NFTMarketplaceUpgradableV2 contract \n// with the help of this interface we can call Royalties, Mint and transfer from Funcationalites of that contract\ninterface NFTMarketplaceUpgradable {\n    struct Royalties {\n        address payable account;\n        uint256 percentage;\n    }\n\n    function mint(\n        address receiver,\n        uint256 collectibleId,\n        string memory IPFSHash,\n        Royalties calldata royalties\n    ) external;\n\n    function ownerOf(uint256 _tokenId) external view returns (address);\n\n    function transferFrom(\n        address _from,\n        address _to,\n        uint256 _tokenId\n    ) external payable;\n}\n\ncontract McFaydenNFTMarketplaceUpgradable is\n    Initializable,\n    AccessControlEnumerableUpgradeable,\n    OwnableUpgradeable,\n    ReentrancyGuardUpgradeable,\n    IERC721ReceiverUpgradeable\n{\n    using SafeMathUpgradeable for uint256;\n\n    function initialize(\n        address rootAdmin,\n        libERC721Fee.Part memory _maintainer,\n        uint16 _maintainerInitialFee,\n        NFTMarketplaceUpgradable _tokenerc721\n    ) public virtual initializer {\n        __McFaydenNFTMarketplaceUpgradable_init(\n            rootAdmin,\n            _maintainer,\n            _maintainerInitialFee,\n            _tokenerc721\n        );\n    }\n\n    // Access Roles\n    bytes32 public constant MINTER_ROLE = keccak256(\"MINTER_ROLE\");\n    bytes32 public constant PAUSER_ROLE = keccak256(\"PAUSER_ROLE\");\n    bytes32 public constant ADMIN_ROLE = keccak256(\"ADMIN_ROLE\");\n\n    function __McFaydenNFTMarketplaceUpgradable_init(\n        address rootAdmin,\n        libERC721Fee.Part memory _maintainer,\n        uint16 _maintainerInitialFee,\n        NFTMarketplaceUpgradable _tokenerc721\n    ) internal initializer {\n        __McFaydenNFTMarketplaceUpgradable_init_unchained(\n            rootAdmin,\n            _maintainer,\n            _maintainerInitialFee,\n            _tokenerc721\n        );\n        __ReentrancyGuard_init_unchained();\n        __AccessControl_init_unchained();\n        __AccessControlEnumerable_init_unchained();\n        __Ownable_init_unchained();\n    }\n\n    function __McFaydenNFTMarketplaceUpgradable_init_unchained(\n        address rootAdmin,\n        libERC721Fee.Part memory _maintainer,\n        uint16 _maintainerInitialFee,\n        NFTMarketplaceUpgradable _tokenerc721\n    ) internal initializer {\n        _setMaintainer(_maintainer, _maintainerInitialFee);\n        _setupRole(DEFAULT_ADMIN_ROLE, _msgSender());\n        _setupRole(ADMIN_ROLE, rootAdmin);\n        _setRoleAdmin(MINTER_ROLE, ADMIN_ROLE);\n        _setNftToken(_tokenerc721);\n    }\n\n    // Mappings\n    mapping(uint256 => libERC721Fee.Data) private tokenSaleData; // mapping the token and the data to Data Struct in libERC721\n    mapping(uint256 => uint256) private saleStatus; // mapping token id with Auction Type\n    mapping(uint256 => libERC721Fee.Part) auction; // for which token pepole auctioning and bided value for particular token.\n    mapping(uint256 => libERC721Fee.Part) sale; //for which token pepole particpating for sale\n    libERC721Fee.Part private maintainer; // maintainer is platform admin to get some commisson on each token.\n    uint16 private maintainerInitialFee; //setting up maintainer initial fee\n\n    // interface Varibale declaration\n    NFTMarketplaceUpgradable private tokenerc721; // t interact minit with NFT marketplace v2 contract.\n\n    // event is called when emit is happend on specific function.\n    event StartAuction(\n        address indexed tokenOwner,\n        uint256 indexed tokenId,\n        uint256 basePrice\n    );\n    event StartSale(\n        address indexed tokenOwner,\n        uint256 indexed tokenId,\n        uint256 basePrice\n    );\n    event Buy(\n        address indexed from,\n        address indexed to,\n        uint256 indexed tokenId,\n        uint256 price\n    );\n    event Bid(\n        uint256 indexed tokenId,\n        address indexed currentBidder,\n        uint256 biddingAmount\n    );\n    event PlaceBid(\n        address indexed from,\n        address indexed to,\n        uint256 indexed tokenId,\n        uint256 price\n    );\n    event Cancel(uint256 indexed tokenId);\n\n    /**\n     * @dev overriding the inherited {transferOwnership} function to reflect the admin changes into the {DEFAULT_ADMIN_ROLE}\n     */\n    function transferOwnership(address newOwner) public override onlyOwner {\n        super.transferOwnership(newOwner);\n        _setupRole(DEFAULT_ADMIN_ROLE, newOwner);\n        renounceRole(DEFAULT_ADMIN_ROLE, _msgSender());\n    }\n\n    /**\n     * @dev overriding the inherited {grantRole} function to have a single root admin\n     */\n    function grantRole(bytes32 role, address account) public override {\n        if (role == ADMIN_ROLE)\n            require(\n                getRoleMemberCount(ADMIN_ROLE) == 0,\n                \"exactly one address can have admin role\"\n            );\n\n        super.grantRole(role, account);\n    }\n\n    /**\n     * @dev modifier to check admin rights.\n     * contract owner and root admin have admin rights\n     */\n    modifier onlyAdmin() {\n        require(\n            hasRole(ADMIN_ROLE, _msgSender()) || owner() == _msgSender(),\n            \"Restricted to admin.\"\n        );\n        _;\n    }\n\n    /**\n     * @dev modifier to check mint rights.\n     * contract owner, root admin and minter's have mint rights\n     */\n    modifier onlyMinter() {\n        require(\n            hasRole(ADMIN_ROLE, _msgSender()) ||\n                hasRole(MINTER_ROLE, _msgSender()) ||\n                owner() == _msgSender(),\n            \"Restricted to minter.\"\n        );\n        _;\n    }\n\n    /**\n     * @dev This function is to change the root admin\n     * exaclty one root admin is allowed per contract\n     * only contract owner have the authority to add, remove or change\n     */\n    function changeRootAdmin(address newAdmin) public {\n        address oldAdmin = getRoleMember(ADMIN_ROLE, 0);\n        revokeRole(ADMIN_ROLE, oldAdmin);\n        grantRole(ADMIN_ROLE, newAdmin);\n    }\n\n    /**\n     * @dev This function is to add a minter into the contract,\n     * only root admin and contract owner have the authority to add them\n     * but only the root admin can revoke them using {revokeRole}\n     * minter or pauser can also self renounce the access using {renounceRole}\n     */\n    function addMinter(address account, bytes32 role) public onlyAdmin {\n        if (role == MINTER_ROLE) _setupRole(role, account);\n    }\n\n\n    // it shows current bid value of particular token in auction\n    function getCurrentBid(uint256 tokenId)\n        public\n        view\n        returns (libERC721Fee.Part memory)\n    {\n        return auction[tokenId];\n    }\n\n\n   // this function is used to cancle the bided token\n   // and transfer the token to token with help tranferFrom from NFTMarketplaceUpgradableV2 contract interface..\n   // and delete the data from auction,salestatus and sale mappings..\n    function cancel(uint256 tokenId) public {\n        require(\n            tokenSaleData[tokenId].collectableOwner == msg.sender,\n            \"Not owner of the token\"\n        );\n        require(\n            auction[tokenId].account == address(0),\n            \"cannot cancel if bidding has started \"\n        );\n\n        tokenerc721.transferFrom(\n            tokenerc721.ownerOf(tokenId),\n            tokenSaleData[tokenId].collectableOwner,\n            tokenId\n        );\n\n        delete auction[tokenId];\n        delete saleStatus[tokenId];\n        delete sale[tokenId];\n\n        emit Cancel(tokenId);\n    }\n\n    // This will check the initial value and percentage value for maintainer\n    function _checkPercentageValue(uint256 _value) internal virtual {\n        require(_value <= 5000, \"maintainer fee cannot exceed half\");\n    }\n\n    // Interface the TokeniD TO Nft marketplace upgradeable contract..\n    function _setNftToken(NFTMarketplaceUpgradable _nfttoken) internal virtual {\n        tokenerc721 = _nfttoken;\n    }\n\n    // It shows NFT marketplace V2 Contract Address\n    function gettNftAddress() view public returns(NFTMarketplaceUpgradable) { \n        return tokenerc721; \n    }\n\n    // This will set the value and Initialfee for maintainer address\n    function _setMaintainer(\n        libERC721Fee.Part memory _maintainer,\n        uint16 _maintainerInitialFee\n    ) internal virtual {\n        require(_maintainer.account != address(0));\n        _checkPercentageValue(_maintainer.value);\n        _checkPercentageValue(_maintainerInitialFee);\n        maintainer = _maintainer;\n        maintainerInitialFee = _maintainerInitialFee;\n    }\n\n    /**\n     * @dev This funtion is to update maintainer account address,\n     * primary commission percentage and secondery commission percentage.\n     */\n    function updateMaintainer(\n        libERC721Fee.Part memory _maintainer,\n        uint16 _maintainerInitialFee\n    ) public onlyAdmin {\n        _setMaintainer(_maintainer, _maintainerInitialFee);\n    }\n\n    /**\n     * @dev This funtion is to update primary commission percentage.\n     */\n\n    function updatemaintainerInitialFee(uint16 _value) public onlyAdmin {\n        _checkPercentageValue(_value);\n        maintainerInitialFee = _value;\n    }\n\n    /**\n     * @dev This funtion is to update Secondery commission percentage.\n     */\n\n    function updateMaintainerValue(uint256 _value) public onlyAdmin {\n        _checkPercentageValue(_value);\n        maintainer.value = _value;\n    }\n\n    /**\n     * @dev This funtion is to return maintainer account address\n     *\n     */\n    function getMaintainer() public view returns (address) {\n        return maintainer.account;\n    }\n\n    /**\n     * @dev This funtion is to return maintainer fee (secondery sale)\n     *\n     */\n\n    function getMaintainerValue() public view returns (uint256) {\n        return maintainer.value;\n    }\n\n    /**\n     * @dev This funtion is to return maintainer fee (primary sale)\n     *\n     */\n    function getMaintainerInitialFee() public view returns (uint16) {\n        return maintainerInitialFee;\n    }\n\n    /**\n     * @dev This funtion is to return current bidder, current bid, buy now price of auction with tokenId\n     *\n     */\n\n    function getAuctionDetails(uint256 collectableId)\n        public\n        view\n        returns (\n            address,\n            uint256,\n            uint256,\n            address\n        )\n    {\n        return (\n            auction[collectableId].account,\n            auction[collectableId].value,\n            sale[collectableId].value,\n            tokenSaleData[collectableId].collectableOwner\n        );\n    }\n    // this will set token sale status..\n    function _setTokenSaleStatus(uint256 tokenId, uint256 status) internal {\n        require(\n            status == libERC721Fee.TYPE_DEFAULT ||\n                status == libERC721Fee.TYPE_SALE ||\n                status == libERC721Fee.TYPE_AUCTION,\n            \"Invalid token sale status\"\n        );\n        saleStatus[tokenId] = status;\n    }\n    // this will set base price (Staring Price) for each token\n    function _setBasePrice(uint256 tokenId, uint256 basePrice) internal {\n        require(\n            auction[tokenId].account == address(0),\n            \"The auction is not yet closed\"\n        );\n\n        auction[tokenId].value = basePrice;\n    }\n    // this will set Sale price(Final Price) for each token \n    function _setSalePrice(uint256 tokenId, uint256 salePrice) internal {\n        //sale active\n        sale[tokenId].value = salePrice;\n    }\n\n    function _returnCurrentBid(uint256 tokenId) internal {\n        address payable currentBidder = auction[tokenId].account;\n        uint256 currentBid = auction[tokenId].value;\n\n        if (currentBidder != address(0)) {\n            currentBidder.transfer(currentBid);\n        }\n    }\n    // This will added bidder account and value to the for specific token in auction mappping..\n    function _setBidder(\n        uint256 tokenId,\n        address payable bidder,\n        uint256 amount\n    ) internal {\n        require(\n            saleStatus[tokenId] == libERC721Fee.TYPE_AUCTION,\n            \"No active auction\"\n        );\n\n        auction[tokenId].account = bidder;\n        auction[tokenId].value = amount;\n    }\n\n    // As part of the lazy minting this mint function can be called by rootAdmin\n    function mintAndTransfer(\n        libERC721Fee.Part[] memory creators,\n        address receiver,\n        uint256 collectableId,\n        string memory IPFS_hash\n    ) public onlyMinter nonReentrant {\n        require(\n            !_isShareExceedsHalf(creators),\n            \"Creators share shouldn't exceed half of price\"\n        );\n\n        for (uint256 i = 0; i < creators.length; i++) {\n            tokenSaleData[collectableId].creators.push(creators[i]);\n        }\n\n        NFTMarketplaceUpgradable.Royalties\n            memory royalties = NFTMarketplaceUpgradable.Royalties(\n                creators[0].account,\n                creators[0].value\n            );\n\n        NFTMarketplaceUpgradable(tokenerc721).mint(\n            receiver,\n            collectableId,\n            IPFS_hash,\n            royalties\n        );\n        emit Buy(address(0), receiver, collectableId, 0);\n        tokenSaleData[collectableId].isSecondary = true;\n    }\n\n    // As part of the offchain sale this transfer function can be called by rootAdmin\n    function transferAsset(uint256 collectableId, address receiver)\n        public\n        onlyMinter\n        nonReentrant\n    {\n        emit Buy(\n            tokenSaleData[collectableId].collectableOwner,\n            receiver,\n            collectableId,\n            0\n        );\n        tokenerc721.transferFrom(\n            tokenerc721.ownerOf(collectableId),\n            receiver,\n            collectableId\n        );\n        delete sale[collectableId];\n    }\n\n    // Mint the token and start auction\n    function mintAndStartAuction(\n        uint256 startingPrice,\n        uint256 salePrice,\n        libERC721Fee.Part[] memory creators,\n        address payable collectableOwner,\n        uint256 collectableId,\n        string memory IPFS_hash\n    ) public onlyMinter {\n        require(\n            !_isShareExceedsHalf(creators),\n            \"Creators share shouldn't exceed half of price\"\n        );\n         // adds token to tokensaledata mapping\n        for (uint256 i = 0; i < creators.length; i++) {\n            tokenSaleData[collectableId].creators.push(creators[i]);\n        }\n        tokenSaleData[collectableId].collectableOwner = collectableOwner;\n\n           // setup's royalties using NFTMarketplaceUpgradableV2 interface\n        NFTMarketplaceUpgradable.Royalties\n            memory royalties = NFTMarketplaceUpgradable.Royalties(\n                creators[0].account,\n                creators[0].value\n            );\n\n         // started mint using NFTMarketplaceUpgradableV2 interface\n        NFTMarketplaceUpgradable(tokenerc721).mint(\n            address(this),\n            collectableId,\n            IPFS_hash,\n            royalties\n        );\n\n        _setTokenSaleStatus(collectableId, libERC721Fee.TYPE_AUCTION); // setting up token sale status types\n        _setBasePrice(collectableId, startingPrice); //setting up base price for token\n        _setSalePrice(collectableId, salePrice); //setting up sale price for token\n\n        emit StartAuction(collectableOwner, collectableId, startingPrice);\n    }\n\n    // mint the toekn and start token for sale\n    function mintAndStartSale(\n        uint256 salePrice,\n        libERC721Fee.Part[] memory creators,\n        address payable collectableOwner,\n        uint256 collectableId,\n        string memory IPFS_hash\n    ) public onlyMinter {\n        require(\n            !_isShareExceedsHalf(creators),\n            \"Creators share shouldn't exceed half of price\"\n        );\n        // adds token to tokensaledata mapping\n        for (uint256 i = 0; i < creators.length; i++) {\n            tokenSaleData[collectableId].creators.push(creators[i]);\n        }\n        tokenSaleData[collectableId].collectableOwner = collectableOwner;\n\n        // setup's royalties using NFTMarketplaceUpgradableV2 interface\n        NFTMarketplaceUpgradable.Royalties\n            memory royalties = NFTMarketplaceUpgradable.Royalties(\n                creators[0].account,\n                creators[0].value\n            );\n\n        // started mint using NFTMarketplaceUpgradableV2 interface\n        NFTMarketplaceUpgradable(tokenerc721).mint(\n            address(this),\n            collectableId,\n            IPFS_hash,\n            royalties\n        );\n\n        _setTokenSaleStatus(collectableId, libERC721Fee.TYPE_SALE);// setting up token sale status types\n        _setSalePrice(collectableId, salePrice); //setting up sale price for token\n\n        emit StartSale(collectableOwner, collectableId, salePrice);\n    }\n\n    /**\n     * @dev See {IERC721Receiver-onERC721Received}.\n     *\n     * Always returns `IERC721Receiver.onERC721Received.selector`.\n     * 0 default, 1 sale, 2 auction\n     */\n    function onERC721Received(\n        address,\n        address _from,\n        uint256 _tokenId,\n        bytes memory _data\n    ) public virtual override returns (bytes4) {\n        (uint256 saleType, uint256 basePrice, uint256 salePrice) = abi.decode(\n            _data,\n            (uint256, uint256, uint256)\n        );\n\n        if (saleType == 1) {\n            startSale(_from, salePrice, _tokenId);\n        } else if (saleType == 2) {\n            startAuction(_from, basePrice, salePrice, _tokenId);\n        }\n\n        return this.onERC721Received.selector;\n    }\n    // this will start auction for specific token\n    function startAuction(\n        address tokenOwner,\n        uint256 startingPrice,\n        uint256 salePrice,\n        uint256 collectableId\n    ) internal {\n        _setTokenSaleStatus(collectableId, libERC721Fee.TYPE_AUCTION);\n        _setBasePrice(collectableId, startingPrice);\n        _setSalePrice(collectableId, salePrice);\n        tokenSaleData[collectableId].collectableOwner = payable(tokenOwner);\n\n        emit StartAuction(\n            tokenerc721.ownerOf(collectableId),\n            collectableId,\n            startingPrice\n        );\n    }\n    // This will start sale for specific token [This is also part of Reseller]\n    function startSale(\n        address tokenOwner,\n        uint256 salePrice,\n        uint256 collectableId\n    ) internal {\n        _setTokenSaleStatus(collectableId, libERC721Fee.TYPE_SALE);\n        _setSalePrice(collectableId, salePrice);\n        tokenSaleData[collectableId].collectableOwner = payable(tokenOwner);\n\n        emit StartSale(tokenOwner, collectableId, salePrice);\n    }\n\n    // this function will bidding users to the list . \n    function bid(uint256 collectableId) public payable nonReentrant {\n        require(\n            saleStatus[collectableId] == libERC721Fee.TYPE_AUCTION,\n            \"There is no active auction\"\n        );\n        require(\n            msg.value > auction[collectableId].value,\n            \"Insufficient fund to make a bid\"\n        );\n        // require(!msg.sender.isContract(), \"Contracts cannot do bidding\");\n\n        _returnCurrentBid(collectableId);\n        _setBidder(collectableId, payable(msg.sender), msg.value);\n\n        emit Bid(collectableId, msg.sender, msg.value);\n    }\n\n    // this function is used to close the bidding of specific token..\n    function placeBid(uint256 collectableId)\n        public\n        payable\n        onlyAdmin\n        nonReentrant\n    {\n        // When there is no active bidding, return the asset to the owner\n        // else transfer the asset to the heigest bidder and initiate the payout process\n        if (auction[collectableId].account == address(0)) {\n            tokenerc721.transferFrom(\n                tokenerc721.ownerOf(collectableId),\n                tokenSaleData[collectableId].collectableOwner,\n                collectableId\n            );\n        } else {\n            tokenerc721.transferFrom(\n                tokenerc721.ownerOf(collectableId),\n                auction[collectableId].account,\n                collectableId\n            );\n            _payout(collectableId, auction[collectableId].value);\n        }\n\n        emit PlaceBid(\n            tokenSaleData[collectableId].collectableOwner,\n            auction[collectableId].account,\n            collectableId,\n            auction[collectableId].value\n        );\n\n        delete saleStatus[collectableId];\n        delete auction[collectableId];\n    }\n    // this function used to buy a token if it is in Sale \n    // after token is sold the commisioms are given to specfic address with the help of payout function\n    function buy(\n        address receiver,\n        uint256 collectableId,\n        uint256 purchaseType\n    ) public payable nonReentrant {\n        require(\n            sale[collectableId].value > 0,\n            \"This operation not permitted for this asset\"\n        );\n        require(\n            msg.value >= sale[collectableId].value,\n            \"Insufficient fund to purchase token\"\n        );\n\n        if (purchaseType == libERC721Fee.TYPE_AUCTION) {\n            _returnCurrentBid(collectableId);\n            delete saleStatus[collectableId];\n            delete auction[collectableId];\n        } else {\n            require(\n                purchaseType == libERC721Fee.TYPE_SALE,\n                \"Invalid purchase type\"\n            );\n        }\n        // thsi function will give pay commission..\n        _payout(collectableId, sale[collectableId].value);\n        emit Buy(\n            tokenSaleData[collectableId].collectableOwner,\n            receiver,\n            collectableId,\n            sale[collectableId].value\n        );\n        tokenerc721.transferFrom(\n            tokenerc721.ownerOf(collectableId),\n            receiver,\n            collectableId\n        );\n        delete sale[collectableId];\n    }\n    // this function will be called when buy function is called\n    // this function gives the commission to creator[admin], maintainer[Platform admin] and owner[Token Owner]\n    function _payout(uint256 collectableId, uint256 price) internal {\n        uint256 creatorsPayment;\n        uint256 maintainerPayment;\n        uint256 ownerPayout = price;\n        libERC721Fee.Part[] storage creators = tokenSaleData[collectableId]\n            .creators;\n\n        if (tokenSaleData[collectableId].isSecondary) {\n            maintainerPayment = price.mul(maintainer.value).div(10000);\n\n            for (uint256 i = 0; i < creators.length; i++) {\n                creatorsPayment = price.mul(creators[i].value).div(10000);\n                ownerPayout = ownerPayout.sub(creatorsPayment);\n                creators[i].account.transfer(creatorsPayment);\n            }\n        } else {\n            maintainerPayment = price.mul(maintainerInitialFee).div(10000);\n\n            if (creators.length >= 0) {\n                creatorsPayment = price.sub(maintainerPayment).div(\n                    creators.length\n                );\n            }\n            for (uint256 i = 0; i < creators.length; i++) {\n                ownerPayout = ownerPayout.sub(creatorsPayment);\n                creators[i].account.transfer(creatorsPayment);\n            }\n\n            tokenSaleData[collectableId].isSecondary = true;\n        }\n\n        if (maintainer.account != address(0)) {\n            maintainer.account.transfer(maintainerPayment);\n            ownerPayout = ownerPayout.sub(maintainerPayment);\n        }\n\n        payable(tokenSaleData[collectableId].collectableOwner).transfer(\n            ownerPayout\n        );\n    }\n\n    // It will true or false of token creator if share price is exceed half or not \n    function _isShareExceedsHalf(libERC721Fee.Part[] memory creators)\n        internal\n        pure\n        returns (bool)\n    {\n        uint256 accumulatedShare;\n        for (uint256 i = 0; i < creators.length; i++) {\n            accumulatedShare = accumulatedShare + creators[i].value;\n        }\n        return accumulatedShare > 5000;\n    }\n\n}\n",
  "sourcePath": "/home/user/Training/Month 9 Blockchain/ASHLY/contracts/McFaydenNFTMarketplaceUpgradable.sol",
  "compiler": {
    "name": "solc",
    "version": "0.8.1+commit.df193b15.Emscripten.clang"
  },
  "schemaVersion": "3.4.3",
  "updatedAt": "2022-04-22T05:51:00.578Z",
  "networkType": "ethereum",
  "devdoc": {
    "kind": "dev",
    "methods": {
      "addMinter(address,bytes32)": {
        "details": "This function is to add a minter into the contract, only root admin and contract owner have the authority to add them but only the root admin can revoke them using {revokeRole} minter or pauser can also self renounce the access using {renounceRole}"
      },
      "changeRootAdmin(address)": {
        "details": "This function is to change the root admin exaclty one root admin is allowed per contract only contract owner have the authority to add, remove or change"
      },
      "getAuctionDetails(uint256)": {
        "details": "This funtion is to return current bidder, current bid, buy now price of auction with tokenId"
      },
      "getMaintainer()": {
        "details": "This funtion is to return maintainer account address"
      },
      "getMaintainerInitialFee()": {
        "details": "This funtion is to return maintainer fee (primary sale)"
      },
      "getMaintainerValue()": {
        "details": "This funtion is to return maintainer fee (secondery sale)"
      },
      "getRoleAdmin(bytes32)": {
        "details": "Returns the admin role that controls `role`. See {grantRole} and {revokeRole}. To change a role's admin, use {_setRoleAdmin}."
      },
      "getRoleMember(bytes32,uint256)": {
        "details": "Returns one of the accounts that have `role`. `index` must be a value between 0 and {getRoleMemberCount}, non-inclusive. Role bearers are not sorted in any particular way, and their ordering may change at any point. WARNING: When using {getRoleMember} and {getRoleMemberCount}, make sure you perform all queries on the same block. See the following https://forum.openzeppelin.com/t/iterating-over-elements-on-enumerableset-in-openzeppelin-contracts/2296[forum post] for more information."
      },
      "getRoleMemberCount(bytes32)": {
        "details": "Returns the number of accounts that have `role`. Can be used together with {getRoleMember} to enumerate all bearers of a role."
      },
      "grantRole(bytes32,address)": {
        "details": "overriding the inherited {grantRole} function to have a single root admin"
      },
      "hasRole(bytes32,address)": {
        "details": "Returns `true` if `account` has been granted `role`."
      },
      "onERC721Received(address,address,uint256,bytes)": {
        "details": "See {IERC721Receiver-onERC721Received}. Always returns `IERC721Receiver.onERC721Received.selector`. 0 default, 1 sale, 2 auction"
      },
      "owner()": {
        "details": "Returns the address of the current owner."
      },
      "renounceOwnership()": {
        "details": "Leaves the contract without owner. It will not be possible to call `onlyOwner` functions anymore. Can only be called by the current owner. NOTE: Renouncing ownership will leave the contract without an owner, thereby removing any functionality that is only available to the owner."
      },
      "renounceRole(bytes32,address)": {
        "details": "Revokes `role` from the calling account. Roles are often managed via {grantRole} and {revokeRole}: this function's purpose is to provide a mechanism for accounts to lose their privileges if they are compromised (such as when a trusted device is misplaced). If the calling account had been revoked `role`, emits a {RoleRevoked} event. Requirements: - the caller must be `account`."
      },
      "revokeRole(bytes32,address)": {
        "details": "Revokes `role` from `account`. If `account` had been granted `role`, emits a {RoleRevoked} event. Requirements: - the caller must have ``role``'s admin role."
      },
      "supportsInterface(bytes4)": {
        "details": "See {IERC165-supportsInterface}."
      },
      "transferOwnership(address)": {
        "details": "overriding the inherited {transferOwnership} function to reflect the admin changes into the {DEFAULT_ADMIN_ROLE}"
      },
      "updateMaintainer((address,uint256),uint16)": {
        "details": "This funtion is to update maintainer account address, primary commission percentage and secondery commission percentage."
      },
      "updateMaintainerValue(uint256)": {
        "details": "This funtion is to update Secondery commission percentage."
      },
      "updatemaintainerInitialFee(uint16)": {
        "details": "This funtion is to update primary commission percentage."
      }
    },
    "version": 1
  },
  "userdoc": {
    "kind": "user",
    "methods": {},
    "version": 1
  }
}