{
  "contractName": "NFTMarketplaceUpgradableV2",
  "abi": [
    {
      "anonymous": false,
      "inputs": [
        {
          "indexed": false,
          "internalType": "address",
          "name": "account",
          "type": "address"
        }
      ],
      "name": "AddressBlackListed",
      "type": "event"
    },
    {
      "anonymous": false,
      "inputs": [
        {
          "indexed": false,
          "internalType": "address",
          "name": "account",
          "type": "address"
        }
      ],
      "name": "AddressWhiteListed",
      "type": "event"
    },
    {
      "anonymous": false,
      "inputs": [
        {
          "indexed": true,
          "internalType": "address",
          "name": "owner",
          "type": "address"
        },
        {
          "indexed": true,
          "internalType": "address",
          "name": "approved",
          "type": "address"
        },
        {
          "indexed": true,
          "internalType": "uint256",
          "name": "tokenId",
          "type": "uint256"
        }
      ],
      "name": "Approval",
      "type": "event"
    },
    {
      "anonymous": false,
      "inputs": [
        {
          "indexed": true,
          "internalType": "address",
          "name": "owner",
          "type": "address"
        },
        {
          "indexed": true,
          "internalType": "address",
          "name": "operator",
          "type": "address"
        },
        {
          "indexed": false,
          "internalType": "bool",
          "name": "approved",
          "type": "bool"
        }
      ],
      "name": "ApprovalForAll",
      "type": "event"
    },
    {
      "anonymous": false,
      "inputs": [
        {
          "indexed": true,
          "internalType": "address",
          "name": "previousOwner",
          "type": "address"
        },
        {
          "indexed": true,
          "internalType": "address",
          "name": "newOwner",
          "type": "address"
        }
      ],
      "name": "OwnershipTransferred",
      "type": "event"
    },
    {
      "anonymous": false,
      "inputs": [
        {
          "indexed": false,
          "internalType": "address",
          "name": "account",
          "type": "address"
        }
      ],
      "name": "Paused",
      "type": "event"
    },
    {
      "anonymous": false,
      "inputs": [
        {
          "indexed": false,
          "internalType": "address",
          "name": "account",
          "type": "address"
        }
      ],
      "name": "RemovedAddressFromBlackList",
      "type": "event"
    },
    {
      "anonymous": false,
      "inputs": [
        {
          "indexed": false,
          "internalType": "address",
          "name": "account",
          "type": "address"
        }
      ],
      "name": "RemovedAddressFromWhiteList",
      "type": "event"
    },
    {
      "anonymous": false,
      "inputs": [
        {
          "indexed": false,
          "internalType": "uint256",
          "name": "tokenid",
          "type": "uint256"
        }
      ],
      "name": "RemovedTokenFromBlackList",
      "type": "event"
    },
    {
      "anonymous": false,
      "inputs": [
        {
          "indexed": false,
          "internalType": "uint256",
          "name": "tokenid",
          "type": "uint256"
        }
      ],
      "name": "RemovedTokenFromWhiteList",
      "type": "event"
    },
    {
      "anonymous": false,
      "inputs": [
        {
          "indexed": true,
          "internalType": "bytes32",
          "name": "role",
          "type": "bytes32"
        },
        {
          "indexed": true,
          "internalType": "bytes32",
          "name": "previousAdminRole",
          "type": "bytes32"
        },
        {
          "indexed": true,
          "internalType": "bytes32",
          "name": "newAdminRole",
          "type": "bytes32"
        }
      ],
      "name": "RoleAdminChanged",
      "type": "event"
    },
    {
      "anonymous": false,
      "inputs": [
        {
          "indexed": true,
          "internalType": "bytes32",
          "name": "role",
          "type": "bytes32"
        },
        {
          "indexed": true,
          "internalType": "address",
          "name": "account",
          "type": "address"
        },
        {
          "indexed": true,
          "internalType": "address",
          "name": "sender",
          "type": "address"
        }
      ],
      "name": "RoleGranted",
      "type": "event"
    },
    {
      "anonymous": false,
      "inputs": [
        {
          "indexed": true,
          "internalType": "bytes32",
          "name": "role",
          "type": "bytes32"
        },
        {
          "indexed": true,
          "internalType": "address",
          "name": "account",
          "type": "address"
        },
        {
          "indexed": true,
          "internalType": "address",
          "name": "sender",
          "type": "address"
        }
      ],
      "name": "RoleRevoked",
      "type": "event"
    },
    {
      "anonymous": false,
      "inputs": [
        {
          "indexed": true,
          "internalType": "uint256",
          "name": "tokenId",
          "type": "uint256"
        },
        {
          "indexed": true,
          "internalType": "address",
          "name": "account",
          "type": "address"
        },
        {
          "indexed": false,
          "internalType": "uint256",
          "name": "percentage",
          "type": "uint256"
        }
      ],
      "name": "RoyaltyAdded",
      "type": "event"
    },
    {
      "anonymous": false,
      "inputs": [
        {
          "indexed": false,
          "internalType": "uint256",
          "name": "tokenid",
          "type": "uint256"
        }
      ],
      "name": "TokenBlackListed",
      "type": "event"
    },
    {
      "anonymous": false,
      "inputs": [
        {
          "indexed": false,
          "internalType": "uint256",
          "name": "tokenid",
          "type": "uint256"
        }
      ],
      "name": "TokenWhiteListed",
      "type": "event"
    },
    {
      "anonymous": false,
      "inputs": [
        {
          "indexed": true,
          "internalType": "address",
          "name": "from",
          "type": "address"
        },
        {
          "indexed": true,
          "internalType": "address",
          "name": "to",
          "type": "address"
        },
        {
          "indexed": true,
          "internalType": "uint256",
          "name": "tokenId",
          "type": "uint256"
        }
      ],
      "name": "Transfer",
      "type": "event"
    },
    {
      "anonymous": false,
      "inputs": [
        {
          "indexed": false,
          "internalType": "address",
          "name": "account",
          "type": "address"
        }
      ],
      "name": "Unpaused",
      "type": "event"
    },
    {
      "inputs": [],
      "name": "ADMIN_ROLE",
      "outputs": [
        {
          "internalType": "bytes32",
          "name": "",
          "type": "bytes32"
        }
      ],
      "stateMutability": "view",
      "type": "function",
      "constant": true
    },
    {
      "inputs": [],
      "name": "DEFAULT_ADMIN_ROLE",
      "outputs": [
        {
          "internalType": "bytes32",
          "name": "",
          "type": "bytes32"
        }
      ],
      "stateMutability": "view",
      "type": "function",
      "constant": true
    },
    {
      "inputs": [],
      "name": "GOVERNOR_ROLE",
      "outputs": [
        {
          "internalType": "bytes32",
          "name": "",
          "type": "bytes32"
        }
      ],
      "stateMutability": "view",
      "type": "function",
      "constant": true
    },
    {
      "inputs": [],
      "name": "MINTER_ROLE",
      "outputs": [
        {
          "internalType": "bytes32",
          "name": "",
          "type": "bytes32"
        }
      ],
      "stateMutability": "view",
      "type": "function",
      "constant": true
    },
    {
      "inputs": [],
      "name": "PAUSER_ROLE",
      "outputs": [
        {
          "internalType": "bytes32",
          "name": "",
          "type": "bytes32"
        }
      ],
      "stateMutability": "view",
      "type": "function",
      "constant": true
    },
    {
      "inputs": [],
      "name": "Transferable",
      "outputs": [
        {
          "internalType": "bool",
          "name": "",
          "type": "bool"
        }
      ],
      "stateMutability": "view",
      "type": "function",
      "constant": true
    },
    {
      "inputs": [
        {
          "internalType": "address",
          "name": "to",
          "type": "address"
        },
        {
          "internalType": "uint256",
          "name": "tokenId",
          "type": "uint256"
        }
      ],
      "name": "approve",
      "outputs": [],
      "stateMutability": "nonpayable",
      "type": "function"
    },
    {
      "inputs": [
        {
          "internalType": "address",
          "name": "owner",
          "type": "address"
        }
      ],
      "name": "balanceOf",
      "outputs": [
        {
          "internalType": "uint256",
          "name": "",
          "type": "uint256"
        }
      ],
      "stateMutability": "view",
      "type": "function",
      "constant": true
    },
    {
      "inputs": [
        {
          "internalType": "address",
          "name": "",
          "type": "address"
        }
      ],
      "name": "blacklistedAddresses",
      "outputs": [
        {
          "internalType": "bool",
          "name": "",
          "type": "bool"
        }
      ],
      "stateMutability": "view",
      "type": "function",
      "constant": true
    },
    {
      "inputs": [
        {
          "internalType": "uint256",
          "name": "",
          "type": "uint256"
        }
      ],
      "name": "blacklistedTokens",
      "outputs": [
        {
          "internalType": "bool",
          "name": "",
          "type": "bool"
        }
      ],
      "stateMutability": "view",
      "type": "function",
      "constant": true
    },
    {
      "inputs": [
        {
          "internalType": "uint256",
          "name": "tokenId",
          "type": "uint256"
        }
      ],
      "name": "burn",
      "outputs": [],
      "stateMutability": "nonpayable",
      "type": "function"
    },
    {
      "inputs": [
        {
          "internalType": "uint256",
          "name": "tokenId",
          "type": "uint256"
        }
      ],
      "name": "getApproved",
      "outputs": [
        {
          "internalType": "address",
          "name": "",
          "type": "address"
        }
      ],
      "stateMutability": "view",
      "type": "function",
      "constant": true
    },
    {
      "inputs": [
        {
          "internalType": "bytes32",
          "name": "role",
          "type": "bytes32"
        }
      ],
      "name": "getRoleAdmin",
      "outputs": [
        {
          "internalType": "bytes32",
          "name": "",
          "type": "bytes32"
        }
      ],
      "stateMutability": "view",
      "type": "function",
      "constant": true
    },
    {
      "inputs": [
        {
          "internalType": "bytes32",
          "name": "role",
          "type": "bytes32"
        },
        {
          "internalType": "uint256",
          "name": "index",
          "type": "uint256"
        }
      ],
      "name": "getRoleMember",
      "outputs": [
        {
          "internalType": "address",
          "name": "",
          "type": "address"
        }
      ],
      "stateMutability": "view",
      "type": "function",
      "constant": true
    },
    {
      "inputs": [
        {
          "internalType": "bytes32",
          "name": "role",
          "type": "bytes32"
        }
      ],
      "name": "getRoleMemberCount",
      "outputs": [
        {
          "internalType": "uint256",
          "name": "",
          "type": "uint256"
        }
      ],
      "stateMutability": "view",
      "type": "function",
      "constant": true
    },
    {
      "inputs": [
        {
          "internalType": "bytes32",
          "name": "role",
          "type": "bytes32"
        },
        {
          "internalType": "address",
          "name": "account",
          "type": "address"
        }
      ],
      "name": "hasRole",
      "outputs": [
        {
          "internalType": "bool",
          "name": "",
          "type": "bool"
        }
      ],
      "stateMutability": "view",
      "type": "function",
      "constant": true
    },
    {
      "inputs": [
        {
          "internalType": "address",
          "name": "owner",
          "type": "address"
        },
        {
          "internalType": "address",
          "name": "operator",
          "type": "address"
        }
      ],
      "name": "isApprovedForAll",
      "outputs": [
        {
          "internalType": "bool",
          "name": "",
          "type": "bool"
        }
      ],
      "stateMutability": "view",
      "type": "function",
      "constant": true
    },
    {
      "inputs": [],
      "name": "name",
      "outputs": [
        {
          "internalType": "string",
          "name": "",
          "type": "string"
        }
      ],
      "stateMutability": "view",
      "type": "function",
      "constant": true
    },
    {
      "inputs": [],
      "name": "owner",
      "outputs": [
        {
          "internalType": "address",
          "name": "",
          "type": "address"
        }
      ],
      "stateMutability": "view",
      "type": "function",
      "constant": true
    },
    {
      "inputs": [
        {
          "internalType": "uint256",
          "name": "tokenId",
          "type": "uint256"
        }
      ],
      "name": "ownerOf",
      "outputs": [
        {
          "internalType": "address",
          "name": "",
          "type": "address"
        }
      ],
      "stateMutability": "view",
      "type": "function",
      "constant": true
    },
    {
      "inputs": [],
      "name": "paused",
      "outputs": [
        {
          "internalType": "bool",
          "name": "",
          "type": "bool"
        }
      ],
      "stateMutability": "view",
      "type": "function",
      "constant": true
    },
    {
      "inputs": [],
      "name": "renounceOwnership",
      "outputs": [],
      "stateMutability": "nonpayable",
      "type": "function"
    },
    {
      "inputs": [
        {
          "internalType": "bytes32",
          "name": "role",
          "type": "bytes32"
        },
        {
          "internalType": "address",
          "name": "account",
          "type": "address"
        }
      ],
      "name": "renounceRole",
      "outputs": [],
      "stateMutability": "nonpayable",
      "type": "function"
    },
    {
      "inputs": [
        {
          "internalType": "bytes32",
          "name": "role",
          "type": "bytes32"
        },
        {
          "internalType": "address",
          "name": "account",
          "type": "address"
        }
      ],
      "name": "revokeRole",
      "outputs": [],
      "stateMutability": "nonpayable",
      "type": "function"
    },
    {
      "inputs": [
        {
          "internalType": "address",
          "name": "from",
          "type": "address"
        },
        {
          "internalType": "address",
          "name": "to",
          "type": "address"
        },
        {
          "internalType": "uint256",
          "name": "tokenId",
          "type": "uint256"
        }
      ],
      "name": "safeTransferFrom",
      "outputs": [],
      "stateMutability": "nonpayable",
      "type": "function"
    },
    {
      "inputs": [
        {
          "internalType": "address",
          "name": "from",
          "type": "address"
        },
        {
          "internalType": "address",
          "name": "to",
          "type": "address"
        },
        {
          "internalType": "uint256",
          "name": "tokenId",
          "type": "uint256"
        },
        {
          "internalType": "bytes",
          "name": "_data",
          "type": "bytes"
        }
      ],
      "name": "safeTransferFrom",
      "outputs": [],
      "stateMutability": "nonpayable",
      "type": "function"
    },
    {
      "inputs": [
        {
          "internalType": "address",
          "name": "operator",
          "type": "address"
        },
        {
          "internalType": "bool",
          "name": "approved",
          "type": "bool"
        }
      ],
      "name": "setApprovalForAll",
      "outputs": [],
      "stateMutability": "nonpayable",
      "type": "function"
    },
    {
      "inputs": [],
      "name": "symbol",
      "outputs": [
        {
          "internalType": "string",
          "name": "",
          "type": "string"
        }
      ],
      "stateMutability": "view",
      "type": "function",
      "constant": true
    },
    {
      "inputs": [
        {
          "internalType": "uint256",
          "name": "index",
          "type": "uint256"
        }
      ],
      "name": "tokenByIndex",
      "outputs": [
        {
          "internalType": "uint256",
          "name": "",
          "type": "uint256"
        }
      ],
      "stateMutability": "view",
      "type": "function",
      "constant": true
    },
    {
      "inputs": [
        {
          "internalType": "address",
          "name": "owner",
          "type": "address"
        },
        {
          "internalType": "uint256",
          "name": "index",
          "type": "uint256"
        }
      ],
      "name": "tokenOfOwnerByIndex",
      "outputs": [
        {
          "internalType": "uint256",
          "name": "",
          "type": "uint256"
        }
      ],
      "stateMutability": "view",
      "type": "function",
      "constant": true
    },
    {
      "inputs": [],
      "name": "totalSupply",
      "outputs": [
        {
          "internalType": "uint256",
          "name": "",
          "type": "uint256"
        }
      ],
      "stateMutability": "view",
      "type": "function",
      "constant": true
    },
    {
      "inputs": [
        {
          "internalType": "address",
          "name": "from",
          "type": "address"
        },
        {
          "internalType": "address",
          "name": "to",
          "type": "address"
        },
        {
          "internalType": "uint256",
          "name": "tokenId",
          "type": "uint256"
        }
      ],
      "name": "transferFrom",
      "outputs": [],
      "stateMutability": "nonpayable",
      "type": "function"
    },
    {
      "inputs": [
        {
          "internalType": "address",
          "name": "",
          "type": "address"
        }
      ],
      "name": "whitelistedAddresses",
      "outputs": [
        {
          "internalType": "bool",
          "name": "",
          "type": "bool"
        }
      ],
      "stateMutability": "view",
      "type": "function",
      "constant": true
    },
    {
      "inputs": [
        {
          "internalType": "uint256",
          "name": "",
          "type": "uint256"
        }
      ],
      "name": "whitelistedTokens",
      "outputs": [
        {
          "internalType": "bool",
          "name": "",
          "type": "bool"
        }
      ],
      "stateMutability": "view",
      "type": "function",
      "constant": true
    },
    {
      "inputs": [
        {
          "internalType": "string",
          "name": "name",
          "type": "string"
        },
        {
          "internalType": "string",
          "name": "symbol",
          "type": "string"
        },
        {
          "internalType": "string",
          "name": "baseTokenURI",
          "type": "string"
        },
        {
          "internalType": "address",
          "name": "rootAdmin",
          "type": "address"
        },
        {
          "internalType": "bool",
          "name": "transferable",
          "type": "bool"
        }
      ],
      "name": "initialize",
      "outputs": [],
      "stateMutability": "nonpayable",
      "type": "function"
    },
    {
      "inputs": [
        {
          "internalType": "uint256",
          "name": "tokenId",
          "type": "uint256"
        }
      ],
      "name": "tokenURI",
      "outputs": [
        {
          "internalType": "string",
          "name": "",
          "type": "string"
        }
      ],
      "stateMutability": "view",
      "type": "function",
      "constant": true
    },
    {
      "inputs": [
        {
          "internalType": "address",
          "name": "newOwner",
          "type": "address"
        }
      ],
      "name": "transferOwnership",
      "outputs": [],
      "stateMutability": "nonpayable",
      "type": "function"
    },
    {
      "inputs": [
        {
          "internalType": "bytes32",
          "name": "role",
          "type": "bytes32"
        },
        {
          "internalType": "address",
          "name": "account",
          "type": "address"
        }
      ],
      "name": "grantRole",
      "outputs": [],
      "stateMutability": "nonpayable",
      "type": "function"
    },
    {
      "inputs": [
        {
          "internalType": "address",
          "name": "newAdmin",
          "type": "address"
        }
      ],
      "name": "changeRootAdmin",
      "outputs": [],
      "stateMutability": "nonpayable",
      "type": "function"
    },
    {
      "inputs": [
        {
          "internalType": "address",
          "name": "account",
          "type": "address"
        },
        {
          "internalType": "bytes32",
          "name": "role",
          "type": "bytes32"
        }
      ],
      "name": "addMinterOrPauser",
      "outputs": [],
      "stateMutability": "nonpayable",
      "type": "function"
    },
    {
      "inputs": [
        {
          "internalType": "address",
          "name": "receiver",
          "type": "address"
        },
        {
          "internalType": "uint256",
          "name": "collectibleId",
          "type": "uint256"
        },
        {
          "internalType": "string",
          "name": "IPFSHash",
          "type": "string"
        },
        {
          "components": [
            {
              "internalType": "address",
              "name": "account",
              "type": "address"
            },
            {
              "internalType": "uint256",
              "name": "percentage",
              "type": "uint256"
            }
          ],
          "internalType": "struct NFTMarketplaceUpgradableV2.Royalties",
          "name": "royalties",
          "type": "tuple"
        }
      ],
      "name": "mint",
      "outputs": [],
      "stateMutability": "nonpayable",
      "type": "function"
    },
    {
      "inputs": [
        {
          "internalType": "uint256",
          "name": "_tokenId",
          "type": "uint256"
        },
        {
          "internalType": "uint256",
          "name": "_salePrice",
          "type": "uint256"
        }
      ],
      "name": "royaltyInfo",
      "outputs": [
        {
          "internalType": "address",
          "name": "receiver",
          "type": "address"
        },
        {
          "internalType": "uint256",
          "name": "royaltyAmount",
          "type": "uint256"
        }
      ],
      "stateMutability": "view",
      "type": "function",
      "constant": true
    },
    {
      "inputs": [
        {
          "internalType": "bool",
          "name": "approval",
          "type": "bool"
        }
      ],
      "name": "setApprovalForOwner",
      "outputs": [],
      "stateMutability": "nonpayable",
      "type": "function"
    },
    {
      "inputs": [
        {
          "internalType": "bool",
          "name": "approval",
          "type": "bool"
        },
        {
          "internalType": "address",
          "name": "minterAccount",
          "type": "address"
        }
      ],
      "name": "setApprovalForMinter",
      "outputs": [],
      "stateMutability": "nonpayable",
      "type": "function"
    },
    {
      "inputs": [
        {
          "internalType": "address",
          "name": "account",
          "type": "address"
        }
      ],
      "name": "isApprovedForOwner",
      "outputs": [
        {
          "internalType": "bool",
          "name": "approval",
          "type": "bool"
        }
      ],
      "stateMutability": "view",
      "type": "function",
      "constant": true
    },
    {
      "inputs": [],
      "name": "pause",
      "outputs": [],
      "stateMutability": "nonpayable",
      "type": "function"
    },
    {
      "inputs": [],
      "name": "unpause",
      "outputs": [],
      "stateMutability": "nonpayable",
      "type": "function"
    },
    {
      "inputs": [
        {
          "internalType": "address",
          "name": "_address",
          "type": "address"
        }
      ],
      "name": "isAddressWhiteListed",
      "outputs": [
        {
          "internalType": "bool",
          "name": "",
          "type": "bool"
        }
      ],
      "stateMutability": "nonpayable",
      "type": "function"
    },
    {
      "inputs": [
        {
          "internalType": "address",
          "name": "_address",
          "type": "address"
        }
      ],
      "name": "isAddressBlackListed",
      "outputs": [
        {
          "internalType": "bool",
          "name": "",
          "type": "bool"
        }
      ],
      "stateMutability": "nonpayable",
      "type": "function"
    },
    {
      "inputs": [
        {
          "internalType": "uint256",
          "name": "_tokenid",
          "type": "uint256"
        }
      ],
      "name": "isTokenBlackListed",
      "outputs": [
        {
          "internalType": "bool",
          "name": "",
          "type": "bool"
        }
      ],
      "stateMutability": "nonpayable",
      "type": "function"
    },
    {
      "inputs": [
        {
          "internalType": "uint256",
          "name": "_tokenid",
          "type": "uint256"
        }
      ],
      "name": "isTokenWhiteListed",
      "outputs": [
        {
          "internalType": "bool",
          "name": "",
          "type": "bool"
        }
      ],
      "stateMutability": "nonpayable",
      "type": "function"
    },
    {
      "inputs": [],
      "name": "isTransferable",
      "outputs": [
        {
          "internalType": "bool",
          "name": "",
          "type": "bool"
        }
      ],
      "stateMutability": "nonpayable",
      "type": "function"
    },
    {
      "inputs": [
        {
          "internalType": "address",
          "name": "_address",
          "type": "address"
        }
      ],
      "name": "whiteListAddress",
      "outputs": [],
      "stateMutability": "nonpayable",
      "type": "function"
    },
    {
      "inputs": [
        {
          "internalType": "address",
          "name": "_address",
          "type": "address"
        }
      ],
      "name": "blackListAddress",
      "outputs": [],
      "stateMutability": "nonpayable",
      "type": "function"
    },
    {
      "inputs": [
        {
          "internalType": "uint256",
          "name": "_tokenid",
          "type": "uint256"
        }
      ],
      "name": "whiteListToken",
      "outputs": [],
      "stateMutability": "nonpayable",
      "type": "function"
    },
    {
      "inputs": [
        {
          "internalType": "uint256",
          "name": "_tokenid",
          "type": "uint256"
        }
      ],
      "name": "blackListToken",
      "outputs": [],
      "stateMutability": "nonpayable",
      "type": "function"
    },
    {
      "inputs": [
        {
          "internalType": "address",
          "name": "_address",
          "type": "address"
        }
      ],
      "name": "removeWhiteListAddress",
      "outputs": [],
      "stateMutability": "nonpayable",
      "type": "function"
    },
    {
      "inputs": [
        {
          "internalType": "address",
          "name": "_address",
          "type": "address"
        }
      ],
      "name": "removeBlackListAddress",
      "outputs": [],
      "stateMutability": "nonpayable",
      "type": "function"
    },
    {
      "inputs": [
        {
          "internalType": "uint256",
          "name": "_tokenid",
          "type": "uint256"
        }
      ],
      "name": "removeWhiteListToken",
      "outputs": [],
      "stateMutability": "nonpayable",
      "type": "function"
    },
    {
      "inputs": [
        {
          "internalType": "uint256",
          "name": "_tokenid",
          "type": "uint256"
        }
      ],
      "name": "removeBlackListToken",
      "outputs": [],
      "stateMutability": "nonpayable",
      "type": "function"
    },
    {
      "inputs": [
        {
          "internalType": "bool",
          "name": "_transferable",
          "type": "bool"
        }
      ],
      "name": "setTransferable",
      "outputs": [],
      "stateMutability": "nonpayable",
      "type": "function"
    },
    {
      "inputs": [
        {
          "internalType": "bytes4",
          "name": "interfaceId",
          "type": "bytes4"
        }
      ],
      "name": "supportsInterface",
      "outputs": [
        {
          "internalType": "bool",
          "name": "",
          "type": "bool"
        }
      ],
      "stateMutability": "view",
      "type": "function",
      "constant": true
    }
  ],
  "bytecode": "0x608060405234801561001057600080fd5b50614be4806100206000396000f3fe608060405234801561001057600080fd5b50600436106103d7576000357c01000000000000000000000000000000000000000000000000000000009004806370a0823111610211578063b88d4fde11610137578063d5391393116100ca578063e63ab1e911610099578063e63ab1e9146107dd578063e985e9c5146107e5578063f2fde38b146107f8578063f7e136ba1461080b576103d7565b8063d53913931461079c578063d547741f146107a4578063d5749d42146107b7578063d96e83d6146107ca576103d7565b8063cc3961b011610106578063cc3961b01461075b578063ccc574901461076e578063ce114c2514610776578063cf52a7b214610789576103d7565b8063b88d4fde1461070f578063c6b58ccb14610722578063c87b56dd14610735578063ca15c87314610748576103d7565b80639010d07c116101af578063a217fddf1161017e578063a217fddf146106ce578063a22cb465146106d6578063ac7e0d8a146106e9578063ad23de63146106fc576103d7565b80639010d07c1461068d57806391d14854146106a057806395d89b41146106b35780639cd23707146106bb576103d7565b806375b238fc116101eb57806375b238fc146106625780638456cb591461066a5780638670a86e146106725780638da5cb5b14610685576103d7565b806370a0823114610634578063715018a6146106475780637536fad51461064f576103d7565b80632a55205a1161030157806342842e0e11610294578063578efe2d11610263578063578efe2d146105f35780635c975abb146106065780636352211e1461060e57806366eb463f14610621576103d7565b806342842e0e146105a757806342966c68146105ba57806345e1f743146105cd5780634f6ccce7146105e0576103d7565b806336568abe116102d057806336568abe1461056657806336d318d2146105795780633b0e01331461058c5780633f4ba83a1461059f576103d7565b80632a55205a1461050c5780632f2ff15d1461052d5780632f745c59146105405780633646170414610553576103d7565b806318160ddd1161037957806323b872dd1161034857806323b872dd146104c0578063248a9ca3146104d357806328c56b99146104e657806328f7ed23146104f9576103d7565b806318160ddd146104885780631bf9def01461049d5780632121dc75146104a55780632154bc44146104ad576103d7565b806306fdde03116103b557806306fdde031461042b578063081812fc14610440578063095ea7b3146104605780631650819414610475576103d7565b806301ffc9a7146103dc578063066de93d1461040557806306c933d814610418575b600080fd5b6103ef6103ea3660046139b1565b61081e565b6040516103fc9190613c6c565b60405180910390f35b6103ef610413366004613954565b61086b565b6103ef61042636600461373e565b610876565b61043361088c565b6040516103fc9190613c80565b61045361044e366004613954565b61091e565b6040516103fc9190613c03565b61047361046e366004613883565b61096d565b005b61047361048336600461391f565b610a0b565b610490610a36565b6040516103fc9190613c77565b6103ef610a3d565b6103ef610a47565b6103ef6104bb366004613954565b610a56565b6104736104ce366004613792565b610a6c565b6104906104e1366004613954565b610aa7565b6103ef6104f4366004613954565b610abc565b6104736105073660046139e9565b610ad2565b61051f61051a366004613990565b610b66565b6040516103fc929190613c53565b61047361053b36600461396c565b610bdd565b61049061054e366004613883565b610c34565b610473610561366004613883565b610c8d565b61047361057436600461396c565b610d28565b610473610587366004613954565b610d6d565b61047361059a36600461373e565b610dfc565b610473610e88565b6104736105b5366004613792565b610f15565b6104736105c8366004613954565b610f30565b6103ef6105db36600461373e565b610f63565b6104906105ee366004613954565b610f6e565b610473610601366004613954565b610fd0565b6103ef61105c565b61045361061c366004613954565b611066565b61047361062f36600461373e565b61109e565b61049061064236600461373e565b6110eb565b610473611132565b61047361065d366004613939565b61117e565b6104906111bf565b6104736111d1565b6103ef61068036600461373e565b61125c565b61045361128b565b61045361069b366004613990565b61129a565b6103ef6106ae36600461396c565b6112b2565b6104336112dd565b6104736106c936600461391f565b6112ec565b610490611378565b6104736106e436600461384f565b61137d565b6103ef6106f7366004613954565b61138f565b6103ef61070a36600461373e565b61139a565b61047361071d3660046137d2565b6113a5565b610473610730366004613954565b6113e7565b610433610743366004613954565b611473565b610490610756366004613954565b6115c1565b6104736107693660046138ae565b6115d8565b610490611679565b61047361078436600461373e565b61168b565b61047361079736600461373e565b611717565b6104906117a3565b6104736107b236600461396c565b6117b5565b6103ef6107c536600461373e565b6117d9565b6104736107d836600461373e565b6117ef565b61049061187b565b6103ef6107f336600461375a565b61188d565b61047361080636600461373e565b6118bc565b610473610819366004613954565b61191f565b6000600160e060020a031982167f2a55205a00000000000000000000000000000000000000000000000000000000141561085a57506001610866565b610863826119ab565b90505b919050565b6000610863826119e9565b6101f56020526000908152604090205460ff1681565b606060fb805461089b90614a1e565b80601f01602080910402602001604051908101604052809291908181526020018280546108c790614a1e565b80156109145780601f106108e957610100808354040283529160200191610914565b820191906000526020600020905b8154815290600101906020018083116108f757829003601f168201915b5050505050905090565b6000610929826119ff565b6109515760405160e560020a62461bcd0281526004016109489061444c565b60405180910390fd5b50600090815260ff6020526040902054600160a060020a031690565b600061097882611066565b905080600160a060020a031683600160a060020a031614156109af5760405160e560020a62461bcd028152600401610948906145f5565b80600160a060020a03166109c1611a1c565b600160a060020a031614806109dd57506109dd816107f3611a1c565b6109fc5760405160e560020a62461bcd028152600401610948906142a3565b610a068383611a20565b505050565b6000610a26600080516020614b8f833981519152600061129a565b9050610a32818361137d565b5050565b61012f5490565b6101f95460ff1681565b6000610a51611a9b565b905090565b6101f76020526000908152604090205460ff1681565b610a7d610a77611a1c565b82611aa5565b610a9c5760405160e560020a62461bcd028152600401610948906146f7565b610a06838383611b2d565b60009081526065602052604090206001015490565b6101f86020526000908152604090205460ff1681565b600054610100900460ff16610aed5760005460ff1615610af5565b610af5611c73565b610b145760405160e560020a62461bcd028152600401610948906143ba565b600054610100900460ff16158015610b3f576000805460ff1961ff0019909116610100171660011790555b610b4c8686868686611c84565b8015610b5e576000805461ff00191690555b505050505050565b600080610b72846119ff565b610b915760405160e560020a62461bcd028152600401610948906146c0565b600084815261025f602052604090206001015461271090610bb290856149a5565b610bbc9190614991565b600094855261025f602052604090942054600160a060020a03169492505050565b600080516020614b8f833981519152821415610c2a57610c0a600080516020614b8f8339815191526115c1565b15610c2a5760405160e560020a62461bcd02815260040161094890614007565b610a328282611d58565b6000610c3f836110eb565b8210610c605760405160e560020a62461bcd02815260040161094890613df0565b50600160a060020a038216600090815261012d602090815260408083208484529091529020545b92915050565b610ca7600080516020614b8f8339815191526106ae611a1c565b80610cd15750610cb5611a1c565b600160a060020a0316610cc661128b565b600160a060020a0316145b610cf05760405160e560020a62461bcd02815260040161094890614155565b600080516020614b6f833981519152811480610d195750600080516020614b4f83398151915281145b15610a3257610a328183611d77565b610d30611a1c565b600160a060020a031681600160a060020a031614610d635760405160e560020a62461bcd02815260040161094890614910565b610a328282611d81565b610d87600080516020614b8f8339815191526106ae611a1c565b80610da75750610da7600080516020614b2f8339815191526106ae611a1c565b80610dd15750610db5611a1c565b600160a060020a0316610dc661128b565b600160a060020a0316145b610df05760405160e560020a62461bcd02815260040161094890614689565b610df981611da3565b50565b610e16600080516020614b8f8339815191526106ae611a1c565b80610e365750610e36600080516020614b2f8339815191526106ae611a1c565b80610e605750610e44611a1c565b600160a060020a0316610e5561128b565b600160a060020a0316145b610e7f5760405160e560020a62461bcd02815260040161094890614689565b610df981611e21565b610ea2600080516020614b8f8339815191526106ae611a1c565b80610ec25750610ec2600080516020614b4f8339815191526106ae611a1c565b80610eec5750610ed0611a1c565b600160a060020a0316610ee161128b565b600160a060020a0316145b610f0b5760405160e560020a62461bcd02815260040161094890614845565b610f13611e75565b565b610a06838383604051806020016040528060008152506113a5565b610f3b610a77611a1c565b610f5a5760405160e560020a62461bcd0281526004016109489061487c565b610df981611ee7565b600061086382611fa3565b6000610f78610a36565b8210610f995760405160e560020a62461bcd02815260040161094890614754565b61012f8281548110610fbe5760e060020a634e487b7102600052603260045260246000fd5b90600052602060002001549050919050565b610fea600080516020614b8f8339815191526106ae611a1c565b8061100a575061100a600080516020614b2f8339815191526106ae611a1c565b806110345750611018611a1c565b600160a060020a031661102961128b565b600160a060020a0316145b6110535760405160e560020a62461bcd02815260040161094890614689565b610df981611fc2565b6101915460ff1690565b600081815260fd6020526040812054600160a060020a0316806108635760405160e560020a62461bcd0281526004016109489061435d565b60006110b9600080516020614b8f833981519152600061129a565b90506110d3600080516020614b8f833981519152826117b5565b610a32600080516020614b8f83398151915283610bdd565b6000600160a060020a0382166111165760405160e560020a62461bcd02815260040161094890614300565b50600160a060020a0316600090815260fe602052604090205490565b61113a611a1c565b600160a060020a031661114b61128b565b600160a060020a0316146111745760405160e560020a62461bcd02815260040161094890614563565b610f136000612009565b611196600080516020614b6f833981519152826112b2565b6111b55760405160e560020a62461bcd02815260040161094890613fd0565b610a32818361137d565b600080516020614b8f83398151915281565b6111eb600080516020614b8f8339815191526106ae611a1c565b8061120b575061120b600080516020614b4f8339815191526106ae611a1c565b806112355750611219611a1c565b600160a060020a031661122a61128b565b600160a060020a0316145b6112545760405160e560020a62461bcd02815260040161094890614845565b610f13612068565b600080611278600080516020614b8f833981519152600061129a565b9050611284838261188d565b9392505050565b60c954600160a060020a031690565b600082815260976020526040812061128490836120c7565b6000918252606560209081526040808420600160a060020a0393909316845291905290205460ff1690565b606060fc805461089b90614a1e565b611306600080516020614b8f8339815191526106ae611a1c565b806113265750611326600080516020614b2f8339815191526106ae611a1c565b806113505750611334611a1c565b600160a060020a031661134561128b565b600160a060020a0316145b61136f5760405160e560020a62461bcd02815260040161094890614689565b610df9816120d3565b600081565b610a32611388611a1c565b83836120e7565b60006108638261218e565b6000610863826121a4565b6113b66113b0611a1c565b83611aa5565b6113d55760405160e560020a62461bcd028152600401610948906146f7565b6113e1848484846121c3565b50505050565b611401600080516020614b8f8339815191526106ae611a1c565b806114215750611421600080516020614b2f8339815191526106ae611a1c565b8061144b575061142f611a1c565b600160a060020a031661144061128b565b600160a060020a0316145b61146a5760405160e560020a62461bcd02815260040161094890614689565b610df9816121f9565b606061147e826119ff565b61149d5760405160e560020a62461bcd02815260040161094890614598565b600082815261025e6020526040812080546114b790614a1e565b80601f01602080910402602001604051908101604052809291908181526020018280546114e390614a1e565b80156115305780601f1061150557610100808354040283529160200191611530565b820191906000526020600020905b81548152906001019060200180831161151357829003601f168201915b5050505050905061025d805461154590614a1e565b15159050611554579050610866565b600061025d805461156490614a1e565b905011156115bb5780516115a65761025d61157e84612243565b60405160200161158f929190613ad9565b604051602081830303815290604052915050610866565b61025d8160405160200161158f929190613ad9565b50919050565b60008181526097602052604081206108639061239f565b6115f2600080516020614b8f8339815191526106ae611a1c565b806116125750611612600080516020614b6f8339815191526106ae611a1c565b8061163c5750611620611a1c565b600160a060020a031661163161128b565b600160a060020a0316145b61165b5760405160e560020a62461bcd028152600401610948906148d9565b61166584846123aa565b61166f83836124a4565b6113e183826124f5565b600080516020614b2f83398151915281565b6116a5600080516020614b8f8339815191526106ae611a1c565b806116c557506116c5600080516020614b2f8339815191526106ae611a1c565b806116ef57506116d3611a1c565b600160a060020a03166116e461128b565b600160a060020a0316145b61170e5760405160e560020a62461bcd02815260040161094890614689565b610df9816125af565b611731600080516020614b8f8339815191526106ae611a1c565b806117515750611751600080516020614b2f8339815191526106ae611a1c565b8061177b575061175f611a1c565b600160a060020a031661177061128b565b600160a060020a0316145b61179a5760405160e560020a62461bcd02815260040161094890614689565b610df981612600565b600080516020614b6f83398151915281565b6117be82610aa7565b6117cf816117ca611a1c565b61267d565b610a068383611d81565b6101f66020526000908152604090205460ff1681565b611809600080516020614b8f8339815191526106ae611a1c565b806118295750611829600080516020614b2f8339815191526106ae611a1c565b806118535750611837611a1c565b600160a060020a031661184861128b565b600160a060020a0316145b6118725760405160e560020a62461bcd02815260040161094890614689565b610df9816126e4565b600080516020614b4f83398151915281565b600160a060020a0391821660009081526101006020908152604080832093909416825291909152205460ff1690565b6118c4611a1c565b600160a060020a03166118d561128b565b600160a060020a0316146118fe5760405160e560020a62461bcd02815260040161094890614563565b6119078161275d565b611912600082611d77565b610df96000610574611a1c565b611939600080516020614b8f8339815191526106ae611a1c565b806119595750611959600080516020614b2f8339815191526106ae611a1c565b806119835750611967611a1c565b600160a060020a031661197861128b565b600160a060020a0316145b6119a25760405160e560020a62461bcd02815260040161094890614689565b610df9816127d1565b6000600160e060020a031982167f780e9d63000000000000000000000000000000000000000000000000000000001480610863575061086382612840565b60009081526101f8602052604090205460ff1690565b600090815260fd6020526040902054600160a060020a0316151590565b3390565b600081815260ff60205260409020805473ffffffffffffffffffffffffffffffffffffffff1916600160a060020a0384169081179091558190611a6282611066565b600160a060020a03167f8c5be1e5ebec7d5bd14f71427d1e84f3dd0314c0f7b2291e5b200ac8c7c3b92560405160405180910390a45050565b6101f95460ff1690565b6000611ab0826119ff565b611acf5760405160e560020a62461bcd028152600401610948906140f8565b6000611ada83611066565b905080600160a060020a031684600160a060020a03161480611b15575083600160a060020a0316611b0a8461091e565b600160a060020a0316145b80611b255750611b25818561188d565b949350505050565b82600160a060020a0316611b4082611066565b600160a060020a031614611b695760405160e560020a62461bcd02815260040161094890613f07565b600160a060020a038216611b925760405160e560020a62461bcd02815260040161094890614064565b611b9d8383836128b2565b611ba8600082611a20565b600160a060020a038316600090815260fe60205260408120805460019290611bd19084906149c4565b9091555050600160a060020a038216600090815260fe60205260408120805460019290611bff908490614979565b9091555050600081815260fd6020526040808220805473ffffffffffffffffffffffffffffffffffffffff1916600160a060020a0386811691821790925591518493918716917fddf252ad1be2c89b69c2b068fc378daa952ba7f163c4a11628f55a4df523b3ef91a4610a06838383610a06565b6000611c7e306128bd565b15905090565b600054610100900460ff16611c9f5760005460ff1615611ca7565b611ca7611c73565b611cc65760405160e560020a62461bcd028152600401610948906143ba565b600054610100900460ff16158015611cf1576000805460ff1961ff0019909116610100171660011790555b611cf96128cc565b611d016128cc565b611d096128cc565b611d116128cc565b611d1b86866128f6565b611d236128cc565b611d2b612947565b611d336128cc565b611d3b612981565b611d436128cc565b611d4f868686866129b8565b610b4c82612ac9565b611d6182610aa7565b611d6d816117ca611a1c565b610a068383612af3565b610a328282612af3565b611d8b8282612b15565b6000828152609760205260409020610a069082612b9a565b611dac816119e9565b15611dcc5760405160e560020a62461bcd02815260040161094890614652565b60008181526101f7602052604090819020805460ff19166001179055517f4a07f55b4671e917d1bafcd1f194d4f5701386844390a5a4568fa4b67bc572fd90611e16908390613c77565b60405180910390a150565b600160a060020a03811660009081526101f6602052604090819020805460ff19166001179055517f308f1b8482507c1b7d939a009b858d9264f4d02adac33b8198bb6fddb8531a7c90611e16908390613c03565b611e7d61105c565b611e9c5760405160e560020a62461bcd02815260040161094890613db9565b610191805460ff191690557f5db9ee0a495bf2e6ff9c91a7834c1ba4fdd244a5e8aa4e537bd38aeae4b073aa611ed0611a1c565b604051611edd9190613c03565b60405180910390a1565b6000611ef282611066565b9050611f00816000846128b2565b611f0b600083611a20565b600160a060020a038116600090815260fe60205260408120805460019290611f349084906149c4565b9091555050600082815260fd6020526040808220805473ffffffffffffffffffffffffffffffffffffffff1916905551839190600160a060020a038416907fddf252ad1be2c89b69c2b068fc378daa952ba7f163c4a11628f55a4df523b3ef908390a4610a3281600084610a06565b600160a060020a031660009081526101f6602052604090205460ff1690565b60008181526101f7602052604090819020805460ff19169055517f2111c37417c358776bb4d6ed83935974fe6796deb2b9f82cb775989f01f1ca4390611e16908390613c77565b60c98054600160a060020a0383811673ffffffffffffffffffffffffffffffffffffffff19831681179093556040519116919082907f8be0079c531659141344cd1fd0a4f28419497f9722a3daafe3b4186f6b6457e090600090a35050565b61207061105c565b156120905760405160e560020a62461bcd0281526004016109489061420f565b610191805460ff191660011790557f62e78cea01bee320cd4e420270b5ea74000d11b0c9f74754ebdbfc544b05a258611ed0611a1c565b60006112848383612baf565b6101f9805460ff1916911515919091179055565b81600160a060020a031683600160a060020a0316141561211c5760405160e560020a62461bcd028152600401610948906140c1565b600160a060020a038381166000818152610100602090815260408083209487168084529490915290819020805460ff1916851515179055517f17307eab39ab6107e8899845ad3d59bd9653f200f220920489ca2b5937696c3190612181908590613c6c565b60405180910390a3505050565b60009081526101f7602052604090205460ff1690565b600160a060020a031660009081526101f5602052604090205460ff1690565b6121ce848484611b2d565b6121da84848484612bea565b6113e15760405160e560020a62461bcd02815260040161094890613e4d565b60008181526101f8602052604090819020805460ff19166001179055517f9c672ada4af2d406bfce7b4b2caea810f52943448bf3c4b141d886b048d7558f90611e16908390613c77565b606081612284575060408051808201909152600181527f30000000000000000000000000000000000000000000000000000000000000006020820152610866565b8160005b81156122ae578061229881614a56565b91506122a79050600a83614991565b9150612288565b60008167ffffffffffffffff8111156122da5760e060020a634e487b7102600052604160045260246000fd5b6040519080825280601f01601f191660200182016040528015612304576020820181803683370190505b5090505b8415611b25576123196001836149c4565b9150612326600a86614a71565b612331906030614979565b7f0100000000000000000000000000000000000000000000000000000000000000028183815181106123765760e060020a634e487b7102600052603260045260246000fd5b6020010190600160f860020a031916908160001a905350612398600a86614991565b9450612308565b600061086382612d3d565b600160a060020a0382166123d35760405160e560020a62461bcd02815260040161094890614417565b6123dc816119ff565b156123fc5760405160e560020a62461bcd02815260040161094890613f64565b612408600083836128b2565b600160a060020a038216600090815260fe60205260408120805460019290612431908490614979565b9091555050600081815260fd6020526040808220805473ffffffffffffffffffffffffffffffffffffffff1916600160a060020a03861690811790915590518392907fddf252ad1be2c89b69c2b068fc378daa952ba7f163c4a11628f55a4df523b3ef908290a4610a3260008383610a06565b6124ad826119ff565b6124cc5760405160e560020a62461bcd02815260040161094890614506565b8051819015610a0657600083815261025e6020908152604090912083516113e192850190613600565b6107d08160200135111561251e5760405160e560020a62461bcd02815260040161094890614246565b600061252d602083018361373e565b600160a060020a031614610a3257600082815261025f6020526040902081906125568282614ad0565b506125669050602082018261373e565b600160a060020a0316827f1518a753ce2ba621ee225961119ac7c1dc5ed445928dc2a37e81108a24fccdf183602001356040516125a39190613c77565b60405180910390a35050565b600160a060020a03811660009081526101f5602052604090819020805460ff19169055517f03861b7848217ad38e5f44e4f9f80d3e692441cb3534bbab7662dacda9c6078a90611e16908390613c03565b61260981611fa3565b156126295760405160e560020a62461bcd0281526004016109489061480e565b600160a060020a03811660009081526101f5602052604090819020805460ff19166001179055517f899dfda8e2842707b0e6431b5d8606f841049020fe311e5150d11a23a53ac9f190611e16908390613c03565b61268782826112b2565b610a325761269f81600160a060020a03166014612d41565b6126aa836020612d41565b6040516020016126bb929190613b82565b60408051601f198184030181529082905260e560020a62461bcd02825261094891600401613c80565b6126ed81611fa3565b61270c5760405160e560020a62461bcd02815260040161094890613cc8565b600160a060020a03811660009081526101f6602052604090819020805460ff19169055517fac91c5dfdc2c6d0f740b77f86c14a1f4c717d8eea7c61480fcc784edac92b98c90611e16908390613c03565b612765611a1c565b600160a060020a031661277661128b565b600160a060020a03161461279f5760405160e560020a62461bcd02815260040161094890614563565b600160a060020a0381166127c85760405160e560020a62461bcd02815260040161094890613eaa565b610df981612009565b6127da816119e9565b6127f95760405160e560020a62461bcd02815260040161094890613f9b565b60008181526101f8602052604090819020805460ff19169055517faff5450db3bb72eac0f6c748f3330d7155bf08d51921e598ce8b0f236b6d9d9990611e16908390613c77565b6000600160e060020a031982167f80ac58cd0000000000000000000000000000000000000000000000000000000014806128a35750600160e060020a031982167f5b5e139f00000000000000000000000000000000000000000000000000000000145b80610863575061086382612f68565b610a06838383612fa6565b600160a060020a03163b151590565b600054610100900460ff16610f135760405160e560020a62461bcd028152600401610948906147b1565b600054610100900460ff166129205760405160e560020a62461bcd028152600401610948906147b1565b81516129339060fb906020850190613600565b508051610a069060fc906020840190613600565b600054610100900460ff166129715760405160e560020a62461bcd028152600401610948906147b1565b610f1361297c611a1c565b612009565b600054610100900460ff166129ab5760405160e560020a62461bcd028152600401610948906147b1565b610191805460ff19169055565b600054610100900460ff166129d35760005460ff16156129db565b6129db611c73565b6129fa5760405160e560020a62461bcd028152600401610948906143ba565b600054610100900460ff16158015612a25576000805460ff1961ff0019909116610100171660011790555b8251612a399061025d906020860190613600565b50612a4c6000612a47611a1c565b611d77565b612a64600080516020614b8f83398151915283611d77565b612a8a600080516020614b6f833981519152600080516020614b8f833981519152613047565b612ab0600080516020614b4f833981519152600080516020614b8f833981519152613047565b8015612ac2576000805461ff00191690555b5050505050565b600054610100900460ff166120d35760405160e560020a62461bcd028152600401610948906147b1565b612afd828261309a565b6000828152609760205260409020610a069082613121565b612b1f82826112b2565b15610a32576000828152606560209081526040808320600160a060020a03851684529091529020805460ff19169055612b56611a1c565b600160a060020a031681600160a060020a0316837ff6391f5c32d9c69d2a47ea670b442974b53935d1edc7fd64eb21e047a839171b60405160405180910390a45050565b600061128483600160a060020a038416613136565b6000826000018281548110612bd75760e060020a634e487b7102600052603260045260246000fd5b9060005260206000200154905092915050565b6000612bfe84600160a060020a03166128bd565b15612d325783600160a060020a031663150b7a02612c1a611a1c565b8786866040518563ffffffff167c0100000000000000000000000000000000000000000000000000000000028152600401612c589493929190613c17565b602060405180830381600087803b158015612c7257600080fd5b505af1925050508015612ca2575060408051601f3d908101601f19168201909252612c9f918101906139cd565b60015b612cff573d808015612cd0576040519150601f19603f3d011682016040523d82523d6000602084013e612cd5565b606091505b508051612cf75760405160e560020a62461bcd02815260040161094890613e4d565b805181602001fd5b600160e060020a0319167f150b7a0200000000000000000000000000000000000000000000000000000000149050611b25565b506001949350505050565b5490565b60606000612d508360026149a5565b612d5b906002614979565b67ffffffffffffffff811115612d845760e060020a634e487b7102600052604160045260246000fd5b6040519080825280601f01601f191660200182016040528015612dae576020820181803683370190505b5090507f300000000000000000000000000000000000000000000000000000000000000081600081518110612df65760e060020a634e487b7102600052603260045260246000fd5b6020010190600160f860020a031916908160001a9053507f780000000000000000000000000000000000000000000000000000000000000081600181518110612e525760e060020a634e487b7102600052603260045260246000fd5b6020010190600160f860020a031916908160001a9053506000612e768460026149a5565b612e81906001614979565b90505b6001811115612f46577f303132333435363738396162636465660000000000000000000000000000000085600f1660108110612ed35760e060020a634e487b7102600052603260045260246000fd5b1a7f010000000000000000000000000000000000000000000000000000000000000002828281518110612f195760e060020a634e487b7102600052603260045260246000fd5b6020010190600160f860020a031916908160001a905350601090940493612f3f81614a07565b9050612e84565b5083156112845760405160e560020a62461bcd02815260040161094890613c93565b6000600160e060020a031982167f5a05180f00000000000000000000000000000000000000000000000000000000148061086357506108638261325c565b612faf826121a4565b80612fbe5750612fbe8161218e565b80612fcc5750612fcc611a9b565b612feb5760405160e560020a62461bcd0281526004016109489061418c565b612ff4816119e9565b156130145760405160e560020a62461bcd02815260040161094890613d82565b61301d336121a4565b61303c5760405160e560020a62461bcd028152600401610948906144a9565b610a0683838361329a565b600061305283610aa7565b600084815260656020526040808220600101859055519192508391839186917fbd79b86ffe0ab8e8776151514217cd7cacd52c909f66475c3af44e129f0b00ff9190a4505050565b6130a482826112b2565b610a32576000828152606560209081526040808320600160a060020a03851684529091529020805460ff191660011790556130dd611a1c565b600160a060020a031681600160a060020a0316837f2f8788117e7eff1d82e926ec794901d17c78024a50270940304540a733656f0d60405160405180910390a45050565b600061128483600160a060020a0384166132cd565b6000818152600183016020526040812054801561325257600061315a6001836149c4565b855490915060009061316e906001906149c4565b90508181146131f557600086600001828154811061319f5760e060020a634e487b7102600052603260045260246000fd5b90600052602060002001549050808760000184815481106131d35760e060020a634e487b7102600052603260045260246000fd5b6000918252602080832090910192909255918252600188019052604090208390555b85548690806132175760e060020a634e487b7102600052603160045260246000fd5b600190038181906000526020600020016000905590558560010160008681526020019081526020016000206000905560019350505050610c87565b6000915050610c87565b6000600160e060020a031982167f7965db0b000000000000000000000000000000000000000000000000000000001480610863575061086382613317565b6132a5838383613349565b6132ad61105c565b15610a065760405160e560020a62461bcd02815260040161094890613d25565b60006132d983836133d2565b61330f57508154600181810184556000848152602080822090930184905584548482528286019093526040902091909155610c87565b506000610c87565b600160e060020a031981167f01ffc9a70000000000000000000000000000000000000000000000000000000014919050565b613354838383610a06565b600160a060020a0383166133705761336b816133ea565b613393565b81600160a060020a031683600160a060020a031614613393576133938382613430565b600160a060020a0382166133af576133aa816134d2565b610a06565b82600160a060020a031682600160a060020a031614610a0657610a0682826135ba565b60009081526001919091016020526040902054151590565b61012f8054600083815261013060205260408120829055600182018355919091527f232da9e50dad2971456a78fb5cd6ff6b75019984d6e918139ce990999420f9790155565b6000600161343d846110eb565b61344791906149c4565b600083815261012e602052604090205490915080821461349d57600160a060020a038416600090815261012d60209081526040808320858452825280832054848452818420819055835261012e90915290208190555b50600091825261012e60209081526040808420849055600160a060020a03909416835261012d81528383209183525290812055565b61012f546000906134e5906001906149c4565b6000838152610130602052604081205461012f80549394509092849081106135205760e060020a634e487b7102600052603260045260246000fd5b906000526020600020015490508061012f83815481106135535760e060020a634e487b7102600052603260045260246000fd5b6000918252602080832090910192909255828152610130909152604080822084905585825281205561012f80548061359e5760e060020a634e487b7102600052603160045260246000fd5b6001900381819060005260206000200160009055905550505050565b60006135c5836110eb565b600160a060020a03909316600090815261012d60209081526040808320868452825280832085905593825261012e9052919091209190915550565b82805461360c90614a1e565b90600052602060002090601f01602090048101928261362e5760008555613674565b82601f1061364757805160ff1916838001178555613674565b82800160010185558215613674579182015b82811115613674578251825591602001919060010190613659565b50613680929150613684565b5090565b5b808211156136805760008155600101613685565b600067ffffffffffffffff808411156136b4576136b4614ab7565b604051601f8501601f19908116603f011681019082821181831017156136dc576136dc614ab7565b816040528093508581528686860111156136f557600080fd5b858560208301376000602087830101525050509392505050565b8035801515811461086657600080fd5b600082601f83011261372f578081fd5b61128483833560208501613699565b60006020828403121561374f578081fd5b813561128481614b03565b6000806040838503121561376c578081fd5b823561377781614b03565b9150602083013561378781614b03565b809150509250929050565b6000806000606084860312156137a6578081fd5b83356137b181614b03565b925060208401356137c181614b03565b929592945050506040919091013590565b600080600080608085870312156137e7578081fd5b84356137f281614b03565b9350602085013561380281614b03565b925060408501359150606085013567ffffffffffffffff811115613824578182fd5b8501601f81018713613834578182fd5b61384387823560208401613699565b91505092959194509250565b60008060408385031215613861578182fd5b823561386c81614b03565b915061387a6020840161370f565b90509250929050565b60008060408385031215613895578182fd5b82356138a081614b03565b946020939093013593505050565b60008060008084860360a08112156138c4578485fd5b85356138cf81614b03565b945060208601359350604086013567ffffffffffffffff8111156138f1578384fd5b6138fd8882890161371f565b9350506040605f1982011215613911578182fd5b509295919450926060019150565b600060208284031215613930578081fd5b6112848261370f565b6000806040838503121561394b578182fd5b6137778361370f565b600060208284031215613965578081fd5b5035919050565b6000806040838503121561397e578081fd5b82359150602083013561378781614b03565b600080604083850312156139a2578182fd5b50508035926020909101359150565b6000602082840312156139c2578081fd5b813561128481614b18565b6000602082840312156139de578081fd5b815161128481614b18565b600080600080600060a08688031215613a00578283fd5b853567ffffffffffffffff80821115613a17578485fd5b613a2389838a0161371f565b96506020880135915080821115613a38578485fd5b613a4489838a0161371f565b95506040880135915080821115613a59578485fd5b50613a668882890161371f565b9350506060860135613a7781614b03565b9150613a856080870161370f565b90509295509295909350565b60008151808452613aa98160208601602086016149db565b601f01601f19169290920160200192915050565b60008151613acf8185602086016149db565b9290920192915050565b8254600090819060028104600180831680613af557607f831692505b6020808410821415613b185760e060020a634e487b710287526022600452602487fd5b818015613b2c5760018114613b3d57613b69565b60ff19861689528489019650613b69565b613b468b61496d565b885b86811015613b615781548b820152908501908301613b48565b505084890196505b505050505050613b798185613abd565b95945050505050565b60007f416363657373436f6e74726f6c3a206163636f756e742000000000000000000082528351613bba8160178501602088016149db565b7f206973206d697373696e6720726f6c65200000000000000000000000000000006017918401918201528351613bf78160288401602088016149db565b01602801949350505050565b600160a060020a0391909116815260200190565b6000600160a060020a03808716835280861660208401525083604083015260806060830152613c496080830184613a91565b9695505050505050565b600160a060020a03929092168252602082015260400190565b901515815260200190565b90815260200190565b6000602082526112846020830184613a91565b6020808252818101527f537472696e67733a20686578206c656e67746820696e73756666696369656e74604082015260600190565b60208082526028908201527f616464726573734572726f72203a61646472657373206973206e6f7420626c6160408201527f636b6c6973746564000000000000000000000000000000000000000000000000606082015260800190565b6020808252602b908201527f4552433732315061757361626c653a20746f6b656e207472616e73666572207760408201527f68696c6520706175736564000000000000000000000000000000000000000000606082015260800190565b60208082526015908201527f546f6b656e20697320426c61636b204c69737465640000000000000000000000604082015260600190565b60208082526014908201527f5061757361626c653a206e6f7420706175736564000000000000000000000000604082015260600190565b6020808252602b908201527f455243373231456e756d657261626c653a206f776e657220696e646578206f7560408201527f74206f6620626f756e6473000000000000000000000000000000000000000000606082015260800190565b60208082526032908201527f4552433732313a207472616e7366657220746f206e6f6e20455243373231526560408201527f63656976657220696d706c656d656e7465720000000000000000000000000000606082015260800190565b60208082526026908201527f4f776e61626c653a206e6577206f776e657220697320746865207a65726f206160408201527f6464726573730000000000000000000000000000000000000000000000000000606082015260800190565b60208082526025908201527f4552433732313a207472616e736665722066726f6d20696e636f72726563742060408201527f6f776e6572000000000000000000000000000000000000000000000000000000606082015260800190565b6020808252601c908201527f4552433732313a20746f6b656e20616c7265616479206d696e74656400000000604082015260600190565b6020808252818101527f4572726f72203a20546f6b656e206973206e6f7420626c61636b6c6973746564604082015260600190565b60208082526014908201527f6e6f742061206d696e7465722061646472657373000000000000000000000000604082015260600190565b60208082526027908201527f65786163746c79206f6e6520616464726573732063616e20686176652061646d60408201527f696e20726f6c6500000000000000000000000000000000000000000000000000606082015260800190565b60208082526024908201527f4552433732313a207472616e7366657220746f20746865207a65726f2061646460408201527f7265737300000000000000000000000000000000000000000000000000000000606082015260800190565b60208082526019908201527f4552433732313a20617070726f766520746f2063616c6c657200000000000000604082015260600190565b6020808252602c908201527f4552433732313a206f70657261746f7220717565727920666f72206e6f6e657860408201527f697374656e7420746f6b656e0000000000000000000000000000000000000000606082015260800190565b60208082526014908201527f5265737472696374656420746f2061646d696e2e000000000000000000000000604082015260600190565b60208082526055908201527f4572726f723a20596f75722041646472657373206f7220546f6b65732061726560408201527f206e6f74205768697465204c69737465642c204f7220796f757220546f6b656e60608201527f206973206e6f74205472616e7366657262616c652e0000000000000000000000608082015260a00190565b60208082526010908201527f5061757361626c653a2070617573656400000000000000000000000000000000604082015260600190565b60208082526036908201527f6578636565647320726f79616c747920636f6c6c656374697665206d6178207660408201527f616c7565206f66207477656e74792070657263656e7400000000000000000000606082015260800190565b60208082526038908201527f4552433732313a20617070726f76652063616c6c6572206973206e6f74206f7760408201527f6e6572206e6f7220617070726f76656420666f7220616c6c0000000000000000606082015260800190565b6020808252602a908201527f4552433732313a2062616c616e636520717565727920666f7220746865207a6560408201527f726f206164647265737300000000000000000000000000000000000000000000606082015260800190565b60208082526029908201527f4552433732313a206f776e657220717565727920666f72206e6f6e657869737460408201527f656e7420746f6b656e0000000000000000000000000000000000000000000000606082015260800190565b6020808252602e908201527f496e697469616c697a61626c653a20636f6e747261637420697320616c72656160408201527f647920696e697469616c697a6564000000000000000000000000000000000000606082015260800190565b6020808252818101527f4552433732313a206d696e7420746f20746865207a65726f2061646472657373604082015260600190565b6020808252602c908201527f4552433732313a20617070726f76656420717565727920666f72206e6f6e657860408201527f697374656e7420746f6b656e0000000000000000000000000000000000000000606082015260800190565b60208082526028908201527f4661696c65643a20596f75722041646472657373206973206e6f74205768697460408201527f654c69737465642e000000000000000000000000000000000000000000000000606082015260800190565b6020808252602c908201527f4552433732314d657461646174613a2055524920736574206f66206e6f6e657860408201527f697374656e7420746f6b656e0000000000000000000000000000000000000000606082015260800190565b6020808252818101527f4f776e61626c653a2063616c6c6572206973206e6f7420746865206f776e6572604082015260600190565b6020808252602f908201527f4552433732314d657461646174613a2055524920717565727920666f72206e6f60408201527f6e6578697374656e7420746f6b656e0000000000000000000000000000000000606082015260800190565b60208082526021908201527f4552433732313a20617070726f76616c20746f2063757272656e74206f776e6560408201527f7200000000000000000000000000000000000000000000000000000000000000606082015260800190565b60208082526019908201527f596f757220546f6b656e20697320426c61636b6c697374656400000000000000604082015260600190565b60208082526017908201527f5265737472696374656420746f20676f7665726e65722e000000000000000000604082015260600190565b6020808252601f908201527f717565727920666f72206e6f6e206e6f6e6578697374656e7420746f6b656e00604082015260600190565b60208082526031908201527f4552433732313a207472616e736665722063616c6c6572206973206e6f74206f60408201527f776e6572206e6f7220617070726f766564000000000000000000000000000000606082015260800190565b6020808252602c908201527f455243373231456e756d657261626c653a20676c6f62616c20696e646578206f60408201527f7574206f6620626f756e64730000000000000000000000000000000000000000606082015260800190565b6020808252602b908201527f496e697469616c697a61626c653a20636f6e7472616374206973206e6f74206960408201527f6e697469616c697a696e67000000000000000000000000000000000000000000606082015260800190565b6020808252601b908201527f596f7572204164647265737320697320426c61636b6c69737465640000000000604082015260600190565b60208082526015908201527f5265737472696374656420746f207061757365722e0000000000000000000000604082015260600190565b60208082526030908201527f4552433732314275726e61626c653a2063616c6c6572206973206e6f74206f7760408201527f6e6572206e6f7220617070726f76656400000000000000000000000000000000606082015260800190565b60208082526015908201527f5265737472696374656420746f206d696e7465722e0000000000000000000000604082015260600190565b6020808252602f908201527f416363657373436f6e74726f6c3a2063616e206f6e6c792072656e6f756e636560408201527f20726f6c657320666f722073656c660000000000000000000000000000000000606082015260800190565b60009081526020902090565b6000821982111561498c5761498c614a85565b500190565b6000826149a0576149a0614a9e565b500490565b60008160001904831182151516156149bf576149bf614a85565b500290565b6000828210156149d6576149d6614a85565b500390565b60005b838110156149f65781810151838201526020016149de565b838111156113e15750506000910152565b600081614a1657614a16614a85565b506000190190565b600281046001821680614a3257607f821691505b602082108114156115bb5760e060020a634e487b7102600052602260045260246000fd5b6000600019821415614a6a57614a6a614a85565b5060010190565b600082614a8057614a80614a9e565b500690565b60e060020a634e487b7102600052601160045260246000fd5b60e060020a634e487b7102600052601260045260246000fd5b60e060020a634e487b7102600052604160045260246000fd5b8135614adb81614b03565b600160a060020a038116600160a060020a031983541617825550602082013560018201555050565b600160a060020a0381168114610df957600080fd5b600160e060020a031981168114610df957600080fdfe7935bd0ae54bc31f548c14dba4d37c5c64b3f8ca900cb468fb8abd54d5894f5565d7a28e3265b37a6474929f336521b332c1681b933f6cb9f3376673440d862a9f2df0fed2c77648de5860a4cc508cd0818c85b8b8a1ab4ceeef8d981c8956a6a49807205ce4d355092ef5a8a18f56e8913cf4a201fbe287825b095693c21775a26469706673582212209c067e3c3dd4db35026e63f46cb35972590fa007f3e8f0ca56577b0903730e3f64736f6c63430008010033",
  "immutableReferences": {},
  "source": "// SPDX-License-Identifier: MIT\n\npragma solidity ^0.8.0;\n\nimport \"@openzeppelin/contracts-upgradeable/token/ERC721/ERC721Upgradeable.sol\";\nimport \"@openzeppelin/contracts-upgradeable/token/ERC721/extensions/ERC721EnumerableUpgradeable.sol\";\nimport \"@openzeppelin/contracts-upgradeable/token/ERC721/extensions/ERC721BurnableUpgradeable.sol\";\nimport \"@openzeppelin/contracts-upgradeable/token/ERC721/extensions/ERC721PausableUpgradeable.sol\";\nimport \"@openzeppelin/contracts-upgradeable/access/AccessControlEnumerableUpgradeable.sol\";\nimport \"@openzeppelin/contracts-upgradeable/access/OwnableUpgradeable.sol\";\nimport \"@openzeppelin/contracts-upgradeable/utils/ContextUpgradeable.sol\";\nimport \"@openzeppelin/contracts-upgradeable/utils/CountersUpgradeable.sol\";\nimport \"@openzeppelin/contracts-upgradeable/proxy/utils/Initializable.sol\";\nimport \"./extensions/TokenGovernanceUpgradable.sol\";\n/**\n * @dev {ERC721} token, including:\n *\n *  - ability for holders to burn (destroy) their tokens\n *  - a minter role that allows for token minting (creation)\n *  - a pauser role that allows to stop all token transfers\n *  - token ID and URI autogeneration\n *\n * This contract uses {AccessControl} to lock permissioned functions using the\n * different roles - head to its documentation for details.\n *\n * The account that deploys the contract will be granted the minter and pauser\n * roles, as well as the default admin role, which will let it grant both minter\n * and pauser roles to other accounts.\n */\ncontract NFTMarketplaceUpgradableV2 is\n    Initializable,\n    AccessControlEnumerableUpgradeable,\n    OwnableUpgradeable,\n    ERC721EnumerableUpgradeable,\n    ERC721BurnableUpgradeable,\n    ERC721PausableUpgradeable,\n    ERC721TokenGovernanceUpgradable\n{\n    \n    using StringsUpgradeable for uint256;\n    \n    function initialize(\n        string memory name,\n        string memory symbol,\n        string memory baseTokenURI,\n        address rootAdmin,\n        bool transferable\n    ) public virtual initializer {\n        __NFTMarketplaceUpgradableV2_init(name, symbol, baseTokenURI, rootAdmin, transferable);\n    }\n\n    bytes32 public constant MINTER_ROLE = keccak256(\"MINTER_ROLE\");\n    bytes32 public constant PAUSER_ROLE = keccak256(\"PAUSER_ROLE\");\n    bytes32 public constant ADMIN_ROLE = keccak256(\"ADMIN_ROLE\");\n    bytes32 public constant GOVERNOR_ROLE = keccak256(\"GOVERNOR_ROLE\");\n    \n    string private _baseTokenURI;\n\n    bytes4 private constant _INTERFACE_ID_ERC2981 = 0x2a55205a;\n\n    /**\n     * @dev Grants `DEFAULT_ADMIN_ROLE`, `MINTER_ROLE` and `PAUSER_ROLE` to the\n     * account that deploys the contract.\n     *\n     * Token URIs will be autogenerated based on `baseURI` and their token IDs.\n     * See {ERC721-tokenURI}.\n     */\n    function __NFTMarketplaceUpgradableV2_init(\n        string memory name,\n        string memory symbol,\n        string memory baseTokenURI,\n        address rootAdmin,\n        bool transferable\n    ) internal initializer {\n        __Context_init_unchained();\n        __ERC165_init_unchained();\n        __AccessControl_init_unchained();\n        __AccessControlEnumerable_init_unchained();\n        __ERC721_init_unchained(name, symbol);\n        __ERC721Enumerable_init_unchained();\n        __Ownable_init_unchained();\n        __ERC721Burnable_init_unchained();\n        __Pausable_init_unchained();\n        __ERC721Pausable_init_unchained();\n        __NFTMarketplaceUpgradableV2_init_unchained(name, symbol, baseTokenURI, rootAdmin);\n        __TokenGovernance_init_unchained(transferable);\n    }\n\n    function __NFTMarketplaceUpgradableV2_init_unchained(\n        string memory name,\n        string memory symbol,\n        string memory baseTokenURI,\n        address rootAdmin\n    ) internal initializer {\n        _baseTokenURI = baseTokenURI;\n        \n        _setupRole(DEFAULT_ADMIN_ROLE, _msgSender());\n        _setupRole(ADMIN_ROLE, rootAdmin);\n        _setRoleAdmin(MINTER_ROLE, ADMIN_ROLE);\n        _setRoleAdmin(PAUSER_ROLE, ADMIN_ROLE);\n    }\n    \n    mapping(uint256 => string) private _tokenURIs;\n    \n\n    struct Royalties{\n        address account;\n        uint percentage;\n    }\n\n    // storing the royalty details of a token\n    mapping(uint256 => Royalties) private _royalties;\n    \n    event RoyaltyAdded(uint256 indexed tokenId, address indexed account, uint256 percentage);\n\n    function _baseURI() internal view virtual override returns (string memory) {\n        return _baseTokenURI;\n    }\n    \n    /**\n     * @dev See {IERC721Metadata-tokenURI}.\n     */\n    function tokenURI(uint256 tokenId) public view override returns (string memory) {\n        require(_exists(tokenId), \"ERC721Metadata: URI query for nonexistent token\");\n\n        string memory _tokenURI = _tokenURIs[tokenId];\n\n        // If there is no base URI, return the token URI.\n        if (bytes(_baseTokenURI).length == 0) {\n            return _tokenURI;\n        }\n        // If both are set, concatenate the baseURI and tokenURI (via abi.encodePacked).\n        if (bytes(_baseTokenURI).length > 0) {\n            \n            if(bytes(_tokenURI).length == 0) {\n                // If there is a baseURI but no tokenURI, concatenate the tokenID to the baseURI.\n                return string(abi.encodePacked(_baseTokenURI, tokenId.toString()));\n            }\n            \n            return string(abi.encodePacked(_baseTokenURI, _tokenURI));\n        }\n    }\n    \n    /**\n     * @dev Sets `_tokenURI` as the tokenURI of `tokenId`.\n     *\n     * Requirements:\n     *\n     * - `tokenId` must exist.\n     */\n    function _setTokenURI(uint256 tokenId, string memory _tokenURI) internal virtual {\n        require(_exists(tokenId), \"ERC721Metadata: URI set of nonexistent token\");\n        \n        bytes memory tempBytes = bytes(_tokenURI);\n        if(tempBytes.length > 0) _tokenURIs[tokenId] = _tokenURI;\n    }\n\n     /**\n    * @dev overriding the inherited {transferOwnership} function to reflect the admin changes into the {DEFAULT_ADMIN_ROLE}\n    */\n    function transferOwnership(address newOwner) public override onlyOwner {\n        super.transferOwnership(newOwner);\n        _setupRole(DEFAULT_ADMIN_ROLE, newOwner);\n        renounceRole(DEFAULT_ADMIN_ROLE, _msgSender());\n    }\n    \n    /**\n    * @dev overriding the inherited {grantRole} function to have a single root admin\n    */\n    function grantRole(bytes32 role, address account) public override {\n        if(role == ADMIN_ROLE)\n            require(getRoleMemberCount(ADMIN_ROLE) == 0, \"exactly one address can have admin role\");\n            \n        super.grantRole(role, account);\n    }\n\n    /**\n    * @dev modifier to check admin rights.\n    * contract owner and root admin have admin rights\n    */\n    modifier onlyAdmin() {\n        require(hasRole(ADMIN_ROLE, _msgSender()) || owner() == _msgSender(), \"Restricted to admin.\");\n        _;\n    }\n    \n    /**\n    * @dev modifier to check mint rights.\n    * contract owner, root admin and minter's have mint rights\n    */\n    modifier onlyMinter() {\n        require(\n            hasRole(ADMIN_ROLE, _msgSender()) || \n            hasRole(MINTER_ROLE, _msgSender()) || \n            owner() == _msgSender(), \"Restricted to minter.\"\n            );\n        _;\n    }\n\n       /**\n    * @dev modifier to check pause rights.\n    * contract owner, root admin and pausers's have pause rights\n    */\n    modifier onlyPauser() {\n        require(\n            hasRole(ADMIN_ROLE, _msgSender()) || \n            hasRole(PAUSER_ROLE, _msgSender()) || \n            owner() == _msgSender(), \"Restricted to pauser.\"\n            );\n        _;\n    }\n    \n       /**\n    * @dev modifier to check governer rights.\n    * contract owner, root admin and governer's have governer rights\n    */\n      modifier onlyGoverner() {\n        require(\n            hasRole(ADMIN_ROLE, _msgSender()) || \n            hasRole(GOVERNOR_ROLE, _msgSender()) || \n            owner() == _msgSender(), \"Restricted to governer.\"\n            );\n        _;\n    }\n\n    /**\n    * @dev This function is to change the root admin \n    * exaclty one root admin is allowed per contract\n    * only contract owner have the authority to add, remove or change\n    */\n    function changeRootAdmin(address newAdmin) public {\n        address oldAdmin = getRoleMember(ADMIN_ROLE, 0);\n        revokeRole(ADMIN_ROLE, oldAdmin);\n        grantRole(ADMIN_ROLE, newAdmin);\n    }\n    \n    /**\n    * @dev This function is to add a minter or pauser into the contract, \n    * only root admin and contract owner have the authority to add them\n    * but only the root admin can revoke them using {revokeRole}\n    * minter or pauser can also self renounce the access using {renounceRole}\n    */\n    function addMinterOrPauser(address account, bytes32 role) public onlyAdmin{\n        if(role == MINTER_ROLE || role == PAUSER_ROLE)\n            _setupRole(role, account);\n    }\n    \n  \n    // As part of the lazy minting this mint function will be called by the admin and will transfer the NFT to the buyer\n    function mint(address receiver,uint collectibleId, string memory IPFSHash, Royalties calldata royalties) public onlyMinter {\n        _mint(receiver, collectibleId);\n        _setTokenURI(collectibleId, IPFSHash);\n        _setRoyalties(collectibleId, royalties);\n    }\n    \n    function _setRoyalties(uint256 collectibleId, Royalties calldata royalties) internal virtual {\n        \n        require(royalties.percentage <= 2000, \"exceeds royalty collective max value of twenty percent\");\n        // require(royalties.percentage >= 500, \"subceed royalty collective min value of five percent\");\n        \n        if(royalties.account != address(0)){\n            _royalties[collectibleId] = royalties;\n            emit RoyaltyAdded(collectibleId, royalties.account, royalties.percentage);\n        }\n    }\n    \n     function royaltyInfo(\n        uint256 _tokenId,\n        uint256 _salePrice\n    ) external view returns (\n        address receiver,\n        uint256 royaltyAmount\n    ){\n        require(_exists(_tokenId), \"query for non nonexistent token\");\n        \n        royaltyAmount = (_salePrice * _royalties[_tokenId].percentage) / 10000;\n        receiver = _royalties[_tokenId].account;\n    }\n\n    /**\n    * @dev This funtion is to give authority to root admin to transfer token to the\n    * buyer on behalf of the token owner\n    *\n    * The token owner can approve and renounce the access via this function\n    */\n    function setApprovalForOwner(bool approval) public {\n        address defaultAdmin = getRoleMember(ADMIN_ROLE, 0);\n        setApprovalForAll(defaultAdmin, approval);\n    }\n    \n    /**\n    * @dev This funtion is to give authority to minter to transfer token to the\n    * buyer on behalf of the token owner\n    *\n    * The token owner can approve and renounce the access via this function\n    */\n    function setApprovalForMinter(bool approval, address minterAccount) public {\n        require(hasRole(MINTER_ROLE, minterAccount), \"not a minter address\");\n        setApprovalForAll(minterAccount, approval);\n    }\n\n    /**\n    * @dev This funtion is to check weather the contract admin have approval from a token owner\n    *\n    */\n    function isApprovedForOwner(address account) public view returns (bool approval){\n        address defaultAdmin = getRoleMember(ADMIN_ROLE, 0);\n        return isApprovedForAll(account, defaultAdmin);\n    }\n\n    /**\n     * @dev Pauses all token transfers.\n     *\n     * See {ERC721Pausable} and {Pausable-_pause}.\n     *\n     * Requirements:\n     *\n     * - the caller must have the `PAUSER_ROLE`.\n     */\n    function pause() public virtual onlyPauser{\n        _pause();\n    }\n\n    /**\n     * @dev Unpauses all token transfers.\n     *\n     * See {ERC721Pausable} and {Pausable-_unpause}.\n     *\n     * Requirements:\n     *\n     * - the caller must have the `PAUSER_ROLE`.\n     */\n    function unpause() public virtual onlyPauser{\n        _unpause();\n    }\n\n\n    function isAddressWhiteListed(address _address) public returns(bool){\n        return _isAddressWhiteListed(_address);  \n    }\n\n    function isAddressBlackListed(address _address)public returns(bool) {\n        return _isAddressBlackListed(_address);\n        \n    }\n\n    function isTokenBlackListed(uint _tokenid) public returns(bool) {\n        return _isTokenBlackListed(_tokenid);\n    }\n\n    function isTokenWhiteListed(uint _tokenid) public returns(bool) {\n        return _isTokenWhiteListed(_tokenid);\n    }\n\n    function isTransferable()public returns(bool){\n        return _isTransferable();\n    }\n\n    function whiteListAddress(address _address) public onlyGoverner {\n        _whiteListAddress(_address);\n    }\n    \n    function blackListAddress(address _address) public onlyGoverner {\n        _blackListAddress(_address);\n    }\n\n    function whiteListToken(uint _tokenid)public onlyGoverner {\n        _whiteListToken(_tokenid);\n    }\n\n    function blackListToken(uint _tokenid)public onlyGoverner {\n        _blackListToken(_tokenid);\n    }\n\n    function removeWhiteListAddress(address _address) public onlyGoverner {\n        _removeWhiteListAddress(_address);\n    }\n\n    function removeBlackListAddress(address _address) public onlyGoverner {\n        _removeBlackListAddress(_address);\n    }\n\n    function removeWhiteListToken(uint _tokenid)public onlyGoverner {\n        _removeWhiteListToken(_tokenid);\n    }\n\n    function removeBlackListToken(uint _tokenid)public onlyGoverner {\n        _removeBlackListToken(_tokenid);\n    }\n\n    function setTransferable(bool _transferable)public onlyGoverner {\n        _setTransferable(_transferable);\n    }\n\n\n    function _beforeTokenTransfer(\n        address from,\n        address to,\n        uint256 tokenId\n    ) internal virtual override(ERC721Upgradeable, ERC721EnumerableUpgradeable, ERC721PausableUpgradeable, ERC721TokenGovernanceUpgradable) {\n        super._beforeTokenTransfer(from, to, tokenId);\n    }\n\n    /**\n     * @dev See {IERC165-supportsInterface}.\n     */\n    function supportsInterface(bytes4 interfaceId)\n        public\n        view\n        virtual\n        override(AccessControlEnumerableUpgradeable, ERC721Upgradeable, ERC721EnumerableUpgradeable)\n        returns (bool)\n    {\n        // add support to EIP-2981: NFT Royalty Standard\n        if(interfaceId == _INTERFACE_ID_ERC2981){\n            return true;\n        }\n        return super.supportsInterface(interfaceId);\n    }\n    uint256[48] private __gap;\n}\n",
  "sourcePath": "/home/user/Training/Month 9 Blockchain/ASHLY/contracts/NFTMarketplaceERC721UpgradableV2.sol",
  "compiler": {
    "name": "solc",
    "version": "0.8.1+commit.df193b15.Emscripten.clang"
  },
  "schemaVersion": "3.4.3",
  "updatedAt": "2022-04-22T05:49:42.204Z",
  "networkType": "ethereum",
  "devdoc": {
    "details": "{ERC721} token, including:  - ability for holders to burn (destroy) their tokens  - a minter role that allows for token minting (creation)  - a pauser role that allows to stop all token transfers  - token ID and URI autogeneration This contract uses {AccessControl} to lock permissioned functions using the different roles - head to its documentation for details. The account that deploys the contract will be granted the minter and pauser roles, as well as the default admin role, which will let it grant both minter and pauser roles to other accounts.",
    "kind": "dev",
    "methods": {
      "addMinterOrPauser(address,bytes32)": {
        "details": "This function is to add a minter or pauser into the contract,  only root admin and contract owner have the authority to add them but only the root admin can revoke them using {revokeRole} minter or pauser can also self renounce the access using {renounceRole}"
      },
      "approve(address,uint256)": {
        "details": "See {IERC721-approve}."
      },
      "balanceOf(address)": {
        "details": "See {IERC721-balanceOf}."
      },
      "burn(uint256)": {
        "details": "Burns `tokenId`. See {ERC721-_burn}. Requirements: - The caller must own `tokenId` or be an approved operator."
      },
      "changeRootAdmin(address)": {
        "details": "This function is to change the root admin  exaclty one root admin is allowed per contract only contract owner have the authority to add, remove or change"
      },
      "getApproved(uint256)": {
        "details": "See {IERC721-getApproved}."
      },
      "getRoleAdmin(bytes32)": {
        "details": "Returns the admin role that controls `role`. See {grantRole} and {revokeRole}. To change a role's admin, use {_setRoleAdmin}."
      },
      "getRoleMember(bytes32,uint256)": {
        "details": "Returns one of the accounts that have `role`. `index` must be a value between 0 and {getRoleMemberCount}, non-inclusive. Role bearers are not sorted in any particular way, and their ordering may change at any point. WARNING: When using {getRoleMember} and {getRoleMemberCount}, make sure you perform all queries on the same block. See the following https://forum.openzeppelin.com/t/iterating-over-elements-on-enumerableset-in-openzeppelin-contracts/2296[forum post] for more information."
      },
      "getRoleMemberCount(bytes32)": {
        "details": "Returns the number of accounts that have `role`. Can be used together with {getRoleMember} to enumerate all bearers of a role."
      },
      "grantRole(bytes32,address)": {
        "details": "overriding the inherited {grantRole} function to have a single root admin"
      },
      "hasRole(bytes32,address)": {
        "details": "Returns `true` if `account` has been granted `role`."
      },
      "isApprovedForAll(address,address)": {
        "details": "See {IERC721-isApprovedForAll}."
      },
      "isApprovedForOwner(address)": {
        "details": "This funtion is to check weather the contract admin have approval from a token owner"
      },
      "name()": {
        "details": "See {IERC721Metadata-name}."
      },
      "owner()": {
        "details": "Returns the address of the current owner."
      },
      "ownerOf(uint256)": {
        "details": "See {IERC721-ownerOf}."
      },
      "pause()": {
        "details": "Pauses all token transfers. See {ERC721Pausable} and {Pausable-_pause}. Requirements: - the caller must have the `PAUSER_ROLE`."
      },
      "paused()": {
        "details": "Returns true if the contract is paused, and false otherwise."
      },
      "renounceOwnership()": {
        "details": "Leaves the contract without owner. It will not be possible to call `onlyOwner` functions anymore. Can only be called by the current owner. NOTE: Renouncing ownership will leave the contract without an owner, thereby removing any functionality that is only available to the owner."
      },
      "renounceRole(bytes32,address)": {
        "details": "Revokes `role` from the calling account. Roles are often managed via {grantRole} and {revokeRole}: this function's purpose is to provide a mechanism for accounts to lose their privileges if they are compromised (such as when a trusted device is misplaced). If the calling account had been revoked `role`, emits a {RoleRevoked} event. Requirements: - the caller must be `account`."
      },
      "revokeRole(bytes32,address)": {
        "details": "Revokes `role` from `account`. If `account` had been granted `role`, emits a {RoleRevoked} event. Requirements: - the caller must have ``role``'s admin role."
      },
      "safeTransferFrom(address,address,uint256)": {
        "details": "See {IERC721-safeTransferFrom}."
      },
      "safeTransferFrom(address,address,uint256,bytes)": {
        "details": "See {IERC721-safeTransferFrom}."
      },
      "setApprovalForAll(address,bool)": {
        "details": "See {IERC721-setApprovalForAll}."
      },
      "setApprovalForMinter(bool,address)": {
        "details": "This funtion is to give authority to minter to transfer token to the buyer on behalf of the token owner The token owner can approve and renounce the access via this function"
      },
      "setApprovalForOwner(bool)": {
        "details": "This funtion is to give authority to root admin to transfer token to the buyer on behalf of the token owner The token owner can approve and renounce the access via this function"
      },
      "supportsInterface(bytes4)": {
        "details": "See {IERC165-supportsInterface}."
      },
      "symbol()": {
        "details": "See {IERC721Metadata-symbol}."
      },
      "tokenByIndex(uint256)": {
        "details": "See {IERC721Enumerable-tokenByIndex}."
      },
      "tokenOfOwnerByIndex(address,uint256)": {
        "details": "See {IERC721Enumerable-tokenOfOwnerByIndex}."
      },
      "tokenURI(uint256)": {
        "details": "See {IERC721Metadata-tokenURI}."
      },
      "totalSupply()": {
        "details": "See {IERC721Enumerable-totalSupply}."
      },
      "transferFrom(address,address,uint256)": {
        "details": "See {IERC721-transferFrom}."
      },
      "transferOwnership(address)": {
        "details": "overriding the inherited {transferOwnership} function to reflect the admin changes into the {DEFAULT_ADMIN_ROLE}"
      },
      "unpause()": {
        "details": "Unpauses all token transfers. See {ERC721Pausable} and {Pausable-_unpause}. Requirements: - the caller must have the `PAUSER_ROLE`."
      }
    },
    "version": 1
  },
  "userdoc": {
    "kind": "user",
    "methods": {},
    "version": 1
  }
}